{
  "contractName": "Chex",
  "abi": [
    {
      "inputs": [],
      "stateMutability": "nonpayable",
      "type": "constructor"
    },
    {
      "anonymous": false,
      "inputs": [
        {
          "indexed": false,
          "internalType": "address",
          "name": "previousAdmin",
          "type": "address"
        },
        {
          "indexed": false,
          "internalType": "address",
          "name": "newAdmin",
          "type": "address"
        }
      ],
      "name": "AdminChanged",
      "type": "event"
    },
    {
      "anonymous": false,
      "inputs": [
        {
          "indexed": true,
          "internalType": "address",
          "name": "owner",
          "type": "address"
        },
        {
          "indexed": true,
          "internalType": "address",
          "name": "spender",
          "type": "address"
        },
        {
          "indexed": false,
          "internalType": "uint256",
          "name": "value",
          "type": "uint256"
        }
      ],
      "name": "Approval",
      "type": "event"
    },
    {
      "anonymous": false,
      "inputs": [
        {
          "indexed": true,
          "internalType": "address",
          "name": "beacon",
          "type": "address"
        }
      ],
      "name": "BeaconUpgraded",
      "type": "event"
    },
    {
      "anonymous": false,
      "inputs": [
        {
          "indexed": false,
          "internalType": "uint8",
          "name": "version",
          "type": "uint8"
        }
      ],
      "name": "Initialized",
      "type": "event"
    },
    {
      "anonymous": false,
      "inputs": [
        {
          "indexed": false,
          "internalType": "address",
          "name": "account",
          "type": "address"
        }
      ],
      "name": "Paused",
      "type": "event"
    },
    {
      "anonymous": false,
      "inputs": [
        {
          "indexed": true,
          "internalType": "bytes32",
          "name": "role",
          "type": "bytes32"
        },
        {
          "indexed": true,
          "internalType": "bytes32",
          "name": "previousAdminRole",
          "type": "bytes32"
        },
        {
          "indexed": true,
          "internalType": "bytes32",
          "name": "newAdminRole",
          "type": "bytes32"
        }
      ],
      "name": "RoleAdminChanged",
      "type": "event"
    },
    {
      "anonymous": false,
      "inputs": [
        {
          "indexed": true,
          "internalType": "bytes32",
          "name": "role",
          "type": "bytes32"
        },
        {
          "indexed": true,
          "internalType": "address",
          "name": "account",
          "type": "address"
        },
        {
          "indexed": true,
          "internalType": "address",
          "name": "sender",
          "type": "address"
        }
      ],
      "name": "RoleGranted",
      "type": "event"
    },
    {
      "anonymous": false,
      "inputs": [
        {
          "indexed": true,
          "internalType": "bytes32",
          "name": "role",
          "type": "bytes32"
        },
        {
          "indexed": true,
          "internalType": "address",
          "name": "account",
          "type": "address"
        },
        {
          "indexed": true,
          "internalType": "address",
          "name": "sender",
          "type": "address"
        }
      ],
      "name": "RoleRevoked",
      "type": "event"
    },
    {
      "anonymous": false,
      "inputs": [
        {
          "indexed": true,
          "internalType": "address",
          "name": "from",
          "type": "address"
        },
        {
          "indexed": true,
          "internalType": "address",
          "name": "to",
          "type": "address"
        },
        {
          "indexed": false,
          "internalType": "uint256",
          "name": "value",
          "type": "uint256"
        }
      ],
      "name": "Transfer",
      "type": "event"
    },
    {
      "anonymous": false,
      "inputs": [
        {
          "indexed": false,
          "internalType": "address",
          "name": "account",
          "type": "address"
        }
      ],
      "name": "Unpaused",
      "type": "event"
    },
    {
      "anonymous": false,
      "inputs": [
        {
          "indexed": true,
          "internalType": "address",
          "name": "implementation",
          "type": "address"
        }
      ],
      "name": "Upgraded",
      "type": "event"
    },
    {
      "inputs": [],
      "name": "DEFAULT_ADMIN_ROLE",
      "outputs": [
        {
          "internalType": "bytes32",
          "name": "",
          "type": "bytes32"
        }
      ],
      "stateMutability": "view",
      "type": "function",
      "constant": true
    },
    {
      "inputs": [],
      "name": "MINTER_ROLE",
      "outputs": [
        {
          "internalType": "bytes32",
          "name": "",
          "type": "bytes32"
        }
      ],
      "stateMutability": "view",
      "type": "function",
      "constant": true
    },
    {
      "inputs": [],
      "name": "PAUSER_ROLE",
      "outputs": [
        {
          "internalType": "bytes32",
          "name": "",
          "type": "bytes32"
        }
      ],
      "stateMutability": "view",
      "type": "function",
      "constant": true
    },
    {
      "inputs": [],
      "name": "UPGRADER_ROLE",
      "outputs": [
        {
          "internalType": "bytes32",
          "name": "",
          "type": "bytes32"
        }
      ],
      "stateMutability": "view",
      "type": "function",
      "constant": true
    },
    {
      "inputs": [
        {
          "internalType": "address",
          "name": "owner",
          "type": "address"
        },
        {
          "internalType": "address",
          "name": "spender",
          "type": "address"
        }
      ],
      "name": "allowance",
      "outputs": [
        {
          "internalType": "uint256",
          "name": "",
          "type": "uint256"
        }
      ],
      "stateMutability": "view",
      "type": "function",
      "constant": true
    },
    {
      "inputs": [
        {
          "internalType": "address",
          "name": "spender",
          "type": "address"
        },
        {
          "internalType": "uint256",
          "name": "amount",
          "type": "uint256"
        }
      ],
      "name": "approve",
      "outputs": [
        {
          "internalType": "bool",
          "name": "",
          "type": "bool"
        }
      ],
      "stateMutability": "nonpayable",
      "type": "function"
    },
    {
      "inputs": [
        {
          "internalType": "address",
          "name": "account",
          "type": "address"
        }
      ],
      "name": "balanceOf",
      "outputs": [
        {
          "internalType": "uint256",
          "name": "",
          "type": "uint256"
        }
      ],
      "stateMutability": "view",
      "type": "function",
      "constant": true
    },
    {
      "inputs": [
        {
          "internalType": "uint256",
          "name": "amount",
          "type": "uint256"
        }
      ],
      "name": "burn",
      "outputs": [],
      "stateMutability": "nonpayable",
      "type": "function"
    },
    {
      "inputs": [
        {
          "internalType": "address",
          "name": "account",
          "type": "address"
        },
        {
          "internalType": "uint256",
          "name": "amount",
          "type": "uint256"
        }
      ],
      "name": "burnFrom",
      "outputs": [],
      "stateMutability": "nonpayable",
      "type": "function"
    },
    {
      "inputs": [],
      "name": "decimals",
      "outputs": [
        {
          "internalType": "uint8",
          "name": "",
          "type": "uint8"
        }
      ],
      "stateMutability": "view",
      "type": "function",
      "constant": true
    },
    {
      "inputs": [
        {
          "internalType": "address",
          "name": "spender",
          "type": "address"
        },
        {
          "internalType": "uint256",
          "name": "subtractedValue",
          "type": "uint256"
        }
      ],
      "name": "decreaseAllowance",
      "outputs": [
        {
          "internalType": "bool",
          "name": "",
          "type": "bool"
        }
      ],
      "stateMutability": "nonpayable",
      "type": "function"
    },
    {
      "inputs": [
        {
          "internalType": "bytes32",
          "name": "role",
          "type": "bytes32"
        }
      ],
      "name": "getRoleAdmin",
      "outputs": [
        {
          "internalType": "bytes32",
          "name": "",
          "type": "bytes32"
        }
      ],
      "stateMutability": "view",
      "type": "function",
      "constant": true
    },
    {
      "inputs": [
        {
          "internalType": "bytes32",
          "name": "role",
          "type": "bytes32"
        },
        {
          "internalType": "address",
          "name": "account",
          "type": "address"
        }
      ],
      "name": "grantRole",
      "outputs": [],
      "stateMutability": "nonpayable",
      "type": "function"
    },
    {
      "inputs": [
        {
          "internalType": "bytes32",
          "name": "role",
          "type": "bytes32"
        },
        {
          "internalType": "address",
          "name": "account",
          "type": "address"
        }
      ],
      "name": "hasRole",
      "outputs": [
        {
          "internalType": "bool",
          "name": "",
          "type": "bool"
        }
      ],
      "stateMutability": "view",
      "type": "function",
      "constant": true
    },
    {
      "inputs": [
        {
          "internalType": "address",
          "name": "spender",
          "type": "address"
        },
        {
          "internalType": "uint256",
          "name": "addedValue",
          "type": "uint256"
        }
      ],
      "name": "increaseAllowance",
      "outputs": [
        {
          "internalType": "bool",
          "name": "",
          "type": "bool"
        }
      ],
      "stateMutability": "nonpayable",
      "type": "function"
    },
    {
      "inputs": [],
      "name": "name",
      "outputs": [
        {
          "internalType": "string",
          "name": "",
          "type": "string"
        }
      ],
      "stateMutability": "view",
      "type": "function",
      "constant": true
    },
    {
      "inputs": [],
      "name": "paused",
      "outputs": [
        {
          "internalType": "bool",
          "name": "",
          "type": "bool"
        }
      ],
      "stateMutability": "view",
      "type": "function",
      "constant": true
    },
    {
      "inputs": [],
      "name": "proxiableUUID",
      "outputs": [
        {
          "internalType": "bytes32",
          "name": "",
          "type": "bytes32"
        }
      ],
      "stateMutability": "view",
      "type": "function",
      "constant": true
    },
    {
      "inputs": [
        {
          "internalType": "bytes32",
          "name": "role",
          "type": "bytes32"
        },
        {
          "internalType": "address",
          "name": "account",
          "type": "address"
        }
      ],
      "name": "renounceRole",
      "outputs": [],
      "stateMutability": "nonpayable",
      "type": "function"
    },
    {
      "inputs": [
        {
          "internalType": "bytes32",
          "name": "role",
          "type": "bytes32"
        },
        {
          "internalType": "address",
          "name": "account",
          "type": "address"
        }
      ],
      "name": "revokeRole",
      "outputs": [],
      "stateMutability": "nonpayable",
      "type": "function"
    },
    {
      "inputs": [
        {
          "internalType": "bytes4",
          "name": "interfaceId",
          "type": "bytes4"
        }
      ],
      "name": "supportsInterface",
      "outputs": [
        {
          "internalType": "bool",
          "name": "",
          "type": "bool"
        }
      ],
      "stateMutability": "view",
      "type": "function",
      "constant": true
    },
    {
      "inputs": [],
      "name": "symbol",
      "outputs": [
        {
          "internalType": "string",
          "name": "",
          "type": "string"
        }
      ],
      "stateMutability": "view",
      "type": "function",
      "constant": true
    },
    {
      "inputs": [],
      "name": "totalSupply",
      "outputs": [
        {
          "internalType": "uint256",
          "name": "",
          "type": "uint256"
        }
      ],
      "stateMutability": "view",
      "type": "function",
      "constant": true
    },
    {
      "inputs": [
        {
          "internalType": "address",
          "name": "to",
          "type": "address"
        },
        {
          "internalType": "uint256",
          "name": "amount",
          "type": "uint256"
        }
      ],
      "name": "transfer",
      "outputs": [
        {
          "internalType": "bool",
          "name": "",
          "type": "bool"
        }
      ],
      "stateMutability": "nonpayable",
      "type": "function"
    },
    {
      "inputs": [
        {
          "internalType": "address",
          "name": "from",
          "type": "address"
        },
        {
          "internalType": "address",
          "name": "to",
          "type": "address"
        },
        {
          "internalType": "uint256",
          "name": "amount",
          "type": "uint256"
        }
      ],
      "name": "transferFrom",
      "outputs": [
        {
          "internalType": "bool",
          "name": "",
          "type": "bool"
        }
      ],
      "stateMutability": "nonpayable",
      "type": "function"
    },
    {
      "inputs": [
        {
          "internalType": "address",
          "name": "newImplementation",
          "type": "address"
        }
      ],
      "name": "upgradeTo",
      "outputs": [],
      "stateMutability": "nonpayable",
      "type": "function"
    },
    {
      "inputs": [
        {
          "internalType": "address",
          "name": "newImplementation",
          "type": "address"
        },
        {
          "internalType": "bytes",
          "name": "data",
          "type": "bytes"
        }
      ],
      "name": "upgradeToAndCall",
      "outputs": [],
      "stateMutability": "payable",
      "type": "function",
      "payable": true
    },
    {
      "inputs": [
        {
          "internalType": "string",
          "name": "name",
          "type": "string"
        },
        {
          "internalType": "string",
          "name": "symbol",
          "type": "string"
        }
      ],
      "name": "initialize",
      "outputs": [],
      "stateMutability": "nonpayable",
      "type": "function"
    },
    {
      "inputs": [],
      "name": "pause",
      "outputs": [],
      "stateMutability": "nonpayable",
      "type": "function"
    },
    {
      "inputs": [],
      "name": "unpause",
      "outputs": [],
      "stateMutability": "nonpayable",
      "type": "function"
    },
    {
      "inputs": [
        {
          "internalType": "address",
          "name": "to",
          "type": "address"
        },
        {
          "internalType": "uint256",
          "name": "amount",
          "type": "uint256"
        }
      ],
      "name": "mint",
      "outputs": [],
      "stateMutability": "nonpayable",
      "type": "function"
    }
  ],
  "bytecode": "0x60a06040523073ffffffffffffffffffffffffffffffffffffffff1660809073ffffffffffffffffffffffffffffffffffffffff16815250348015610042575f80fd5b505f8060019054906101000a900460ff16159050808015610072575060015f8054906101000a900460ff1660ff16105b806100a457506100873061017c60201b60201c565b1580156100a3575060015f8054906101000a900460ff1660ff16145b5b6100e3576040517f08c379a00000000000000000000000000000000000000000000000000000000081526004016100da9061021e565b60405180910390fd5b60015f806101000a81548160ff021916908360ff160217905550801561011e5760015f60016101000a81548160ff0219169083151502179055505b8015610176575f8060016101000a81548160ff0219169083151502179055507f7f26b83ff96e1f2b6a682f133852f6798a09c465da95921460cefb3847402498600160405161016d919061028a565b60405180910390a15b506102a3565b5f808273ffffffffffffffffffffffffffffffffffffffff163b119050919050565b5f82825260208201905092915050565b7f496e697469616c697a61626c653a20636f6e747261637420697320616c7265615f8201527f647920696e697469616c697a6564000000000000000000000000000000000000602082015250565b5f610208602e8361019e565b9150610213826101ae565b604082019050919050565b5f6020820190508181035f830152610235816101fc565b9050919050565b5f819050919050565b5f60ff82169050919050565b5f819050919050565b5f61027461026f61026a8461023c565b610251565b610245565b9050919050565b6102848161025a565b82525050565b5f60208201905061029d5f83018461027b565b92915050565b60805161416a6102d75f395f818161098c01528181610a1a01528181610db001528181610e3e0152610eed015261416a5ff3fe6080604052600436106101d7575f3560e01c80634f1ef28611610101578063a217fddf11610094578063d547741f11610063578063d547741f146106a7578063dd62ed3e146106cf578063e63ab1e91461070b578063f72c0d8b14610735576101d7565b8063a217fddf146105db578063a457c2d714610605578063a9059cbb14610641578063d53913931461067d576101d7565b806379cc6790116100d057806379cc6790146105375780638456cb591461055f57806391d148541461057557806395d89b41146105b1576101d7565b80634f1ef2861461048b57806352d1902d146104a75780635c975abb146104d157806370a08231146104fb576101d7565b8063313ce567116101795780633f4ba83a116101485780633f4ba83a146103fd57806340c10f191461041357806342966c681461043b5780634cd88b7614610463576101d7565b8063313ce5671461034757806336568abe146103715780633659cfe61461039957806339509351146103c1576101d7565b806318160ddd116101b557806318160ddd1461027d57806323b872dd146102a7578063248a9ca3146102e35780632f2ff15d1461031f576101d7565b806301ffc9a7146101db57806306fdde0314610217578063095ea7b314610241575b5f80fd5b3480156101e6575f80fd5b5061020160048036038101906101fc9190612900565b61075f565b60405161020e9190612945565b60405180910390f35b348015610222575f80fd5b5061022b6107d8565b60405161023891906129ce565b60405180910390f35b34801561024c575f80fd5b5061026760048036038101906102629190612a7b565b610868565b6040516102749190612945565b60405180910390f35b348015610288575f80fd5b5061029161088a565b60405161029e9190612ac8565b60405180910390f35b3480156102b2575f80fd5b506102cd60048036038101906102c89190612ae1565b610893565b6040516102da9190612945565b60405180910390f35b3480156102ee575f80fd5b5061030960048036038101906103049190612b64565b6108c1565b6040516103169190612b9e565b60405180910390f35b34801561032a575f80fd5b5061034560048036038101906103409190612bb7565b6108de565b005b348015610352575f80fd5b5061035b6108ff565b6040516103689190612c10565b60405180910390f35b34801561037c575f80fd5b5061039760048036038101906103929190612bb7565b610907565b005b3480156103a4575f80fd5b506103bf60048036038101906103ba9190612c29565b61098a565b005b3480156103cc575f80fd5b506103e760048036038101906103e29190612a7b565b610b10565b6040516103f49190612945565b60405180910390f35b348015610408575f80fd5b50610411610b46565b005b34801561041e575f80fd5b5061043960048036038101906104349190612a7b565b610b7b565b005b348015610446575f80fd5b50610461600480360381019061045c9190612c54565b610bb4565b005b34801561046e575f80fd5b5061048960048036038101906104849190612dab565b610bc8565b005b6104a560048036038101906104a09190612ebf565b610dae565b005b3480156104b2575f80fd5b506104bb610eea565b6040516104c89190612b9e565b60405180910390f35b3480156104dc575f80fd5b506104e5610fa1565b6040516104f29190612945565b60405180910390f35b348015610506575f80fd5b50610521600480360381019061051c9190612c29565b610fb6565b60405161052e9190612ac8565b60405180910390f35b348015610542575f80fd5b5061055d60048036038101906105589190612a7b565b610ffc565b005b34801561056a575f80fd5b5061057361101c565b005b348015610580575f80fd5b5061059b60048036038101906105969190612bb7565b611051565b6040516105a89190612945565b60405180910390f35b3480156105bc575f80fd5b506105c56110b5565b6040516105d291906129ce565b60405180910390f35b3480156105e6575f80fd5b506105ef611145565b6040516105fc9190612b9e565b60405180910390f35b348015610610575f80fd5b5061062b60048036038101906106269190612a7b565b61114b565b6040516106389190612945565b60405180910390f35b34801561064c575f80fd5b5061066760048036038101906106629190612a7b565b6111c0565b6040516106749190612945565b60405180910390f35b348015610688575f80fd5b506106916111e2565b60405161069e9190612b9e565b60405180910390f35b3480156106b2575f80fd5b506106cd60048036038101906106c89190612bb7565b611206565b005b3480156106da575f80fd5b506106f560048036038101906106f09190612f19565b611227565b6040516107029190612ac8565b60405180910390f35b348015610716575f80fd5b5061071f6112a9565b60405161072c9190612b9e565b60405180910390f35b348015610740575f80fd5b506107496112cd565b6040516107569190612b9e565b60405180910390f35b5f7f7965db0b000000000000000000000000000000000000000000000000000000007bffffffffffffffffffffffffffffffffffffffffffffffffffffffff1916827bffffffffffffffffffffffffffffffffffffffffffffffffffffffff191614806107d157506107d0826112f1565b5b9050919050565b6060603680546107e790612f84565b80601f016020809104026020016040519081016040528092919081815260200182805461081390612f84565b801561085e5780601f106108355761010080835404028352916020019161085e565b820191905f5260205f20905b81548152906001019060200180831161084157829003601f168201915b5050505050905090565b5f8061087261135a565b905061087f818585611361565b600191505092915050565b5f603554905090565b5f8061089d61135a565b90506108aa858285611524565b6108b58585856115af565b60019150509392505050565b5f60fb5f8381526020019081526020015f20600101549050919050565b6108e7826108c1565b6108f08161181e565b6108fa8383611832565b505050565b5f6012905090565b61090f61135a565b73ffffffffffffffffffffffffffffffffffffffff168173ffffffffffffffffffffffffffffffffffffffff161461097c576040517f08c379a000000000000000000000000000000000000000000000000000000000815260040161097390613024565b60405180910390fd5b610986828261190d565b5050565b7f000000000000000000000000000000000000000000000000000000000000000073ffffffffffffffffffffffffffffffffffffffff163073ffffffffffffffffffffffffffffffffffffffff1603610a18576040517f08c379a0000000000000000000000000000000000000000000000000000000008152600401610a0f906130b2565b60405180910390fd5b7f000000000000000000000000000000000000000000000000000000000000000073ffffffffffffffffffffffffffffffffffffffff16610a576119e8565b73ffffffffffffffffffffffffffffffffffffffff1614610aad576040517f08c379a0000000000000000000000000000000000000000000000000000000008152600401610aa490613140565b60405180910390fd5b610ab681611a3b565b610b0d815f67ffffffffffffffff811115610ad457610ad3612c87565b5b6040519080825280601f01601f191660200182016040528015610b065781602001600182028036833780820191505090505b505f611a69565b50565b5f80610b1a61135a565b9050610b3b818585610b2c8589611227565b610b36919061318b565b611361565b600191505092915050565b7f65d7a28e3265b37a6474929f336521b332c1681b933f6cb9f3376673440d862a610b708161181e565b610b78611bd3565b50565b7f9f2df0fed2c77648de5860a4cc508cd0818c85b8b8a1ab4ceeef8d981c8956a6610ba58161181e565b610baf8383611c34565b505050565b610bc5610bbf61135a565b82611d83565b50565b5f8060019054906101000a900460ff16159050808015610bf7575060015f8054906101000a900460ff1660ff16105b80610c235750610c0630611f48565b158015610c22575060015f8054906101000a900460ff1660ff16145b5b610c62576040517f08c379a0000000000000000000000000000000000000000000000000000000008152600401610c599061322e565b60405180910390fd5b60015f806101000a81548160ff021916908360ff1602179055508015610c9d5760015f60016101000a81548160ff0219169083151502179055505b610ca78383611f6a565b610caf611fc6565b610cb7612016565b610cbf61206e565b610cc76120be565b610cd35f801b33611832565b610cfd7f65d7a28e3265b37a6474929f336521b332c1681b933f6cb9f3376673440d862a33611832565b610d277f9f2df0fed2c77648de5860a4cc508cd0818c85b8b8a1ab4ceeef8d981c8956a633611832565b610d517f189ab7a9244df0848122154315af71fe140f3db0fe014031783b0946b8c9d2e333611832565b8015610da9575f8060016101000a81548160ff0219169083151502179055507f7f26b83ff96e1f2b6a682f133852f6798a09c465da95921460cefb38474024986001604051610da0919061328e565b60405180910390a15b505050565b7f000000000000000000000000000000000000000000000000000000000000000073ffffffffffffffffffffffffffffffffffffffff163073ffffffffffffffffffffffffffffffffffffffff1603610e3c576040517f08c379a0000000000000000000000000000000000000000000000000000000008152600401610e33906130b2565b60405180910390fd5b7f000000000000000000000000000000000000000000000000000000000000000073ffffffffffffffffffffffffffffffffffffffff16610e7b6119e8565b73ffffffffffffffffffffffffffffffffffffffff1614610ed1576040517f08c379a0000000000000000000000000000000000000000000000000000000008152600401610ec890613140565b60405180910390fd5b610eda82611a3b565b610ee682826001611a69565b5050565b5f7f000000000000000000000000000000000000000000000000000000000000000073ffffffffffffffffffffffffffffffffffffffff163073ffffffffffffffffffffffffffffffffffffffff1614610f79576040517f08c379a0000000000000000000000000000000000000000000000000000000008152600401610f7090613317565b60405180910390fd5b7f360894a13ba1a3210667c828492db98dca3e2076cc3735a920a3ca505d382bbc5f1b905090565b5f60975f9054906101000a900460ff16905090565b5f60335f8373ffffffffffffffffffffffffffffffffffffffff1673ffffffffffffffffffffffffffffffffffffffff1681526020019081526020015f20549050919050565b61100e8261100861135a565b83611524565b6110188282611d83565b5050565b7f65d7a28e3265b37a6474929f336521b332c1681b933f6cb9f3376673440d862a6110468161181e565b61104e61210e565b50565b5f60fb5f8481526020019081526020015f205f015f8373ffffffffffffffffffffffffffffffffffffffff1673ffffffffffffffffffffffffffffffffffffffff1681526020019081526020015f205f9054906101000a900460ff16905092915050565b6060603780546110c490612f84565b80601f01602080910402602001604051908101604052809291908181526020018280546110f090612f84565b801561113b5780601f106111125761010080835404028352916020019161113b565b820191905f5260205f20905b81548152906001019060200180831161111e57829003601f168201915b5050505050905090565b5f801b81565b5f8061115561135a565b90505f6111628286611227565b9050838110156111a7576040517f08c379a000000000000000000000000000000000000000000000000000000000815260040161119e906133a5565b60405180910390fd5b6111b48286868403611361565b60019250505092915050565b5f806111ca61135a565b90506111d78185856115af565b600191505092915050565b7f9f2df0fed2c77648de5860a4cc508cd0818c85b8b8a1ab4ceeef8d981c8956a681565b61120f826108c1565b6112188161181e565b611222838361190d565b505050565b5f60345f8473ffffffffffffffffffffffffffffffffffffffff1673ffffffffffffffffffffffffffffffffffffffff1681526020019081526020015f205f8373ffffffffffffffffffffffffffffffffffffffff1673ffffffffffffffffffffffffffffffffffffffff1681526020019081526020015f2054905092915050565b7f65d7a28e3265b37a6474929f336521b332c1681b933f6cb9f3376673440d862a81565b7f189ab7a9244df0848122154315af71fe140f3db0fe014031783b0946b8c9d2e381565b5f7f01ffc9a7000000000000000000000000000000000000000000000000000000007bffffffffffffffffffffffffffffffffffffffffffffffffffffffff1916827bffffffffffffffffffffffffffffffffffffffffffffffffffffffff1916149050919050565b5f33905090565b5f73ffffffffffffffffffffffffffffffffffffffff168373ffffffffffffffffffffffffffffffffffffffff16036113cf576040517f08c379a00000000000000000000000000000000000000000000000000000000081526004016113c690613433565b60405180910390fd5b5f73ffffffffffffffffffffffffffffffffffffffff168273ffffffffffffffffffffffffffffffffffffffff160361143d576040517f08c379a0000000000000000000000000000000000000000000000000000000008152600401611434906134c1565b60405180910390fd5b8060345f8573ffffffffffffffffffffffffffffffffffffffff1673ffffffffffffffffffffffffffffffffffffffff1681526020019081526020015f205f8473ffffffffffffffffffffffffffffffffffffffff1673ffffffffffffffffffffffffffffffffffffffff1681526020019081526020015f20819055508173ffffffffffffffffffffffffffffffffffffffff168373ffffffffffffffffffffffffffffffffffffffff167f8c5be1e5ebec7d5bd14f71427d1e84f3dd0314c0f7b2291e5b200ac8c7c3b925836040516115179190612ac8565b60405180910390a3505050565b5f61152f8484611227565b90507fffffffffffffffffffffffffffffffffffffffffffffffffffffffffffffffff81146115a9578181101561159b576040517f08c379a000000000000000000000000000000000000000000000000000000000815260040161159290613529565b60405180910390fd5b6115a88484848403611361565b5b50505050565b5f73ffffffffffffffffffffffffffffffffffffffff168373ffffffffffffffffffffffffffffffffffffffff160361161d576040517f08c379a0000000000000000000000000000000000000000000000000000000008152600401611614906135b7565b60405180910390fd5b5f73ffffffffffffffffffffffffffffffffffffffff168273ffffffffffffffffffffffffffffffffffffffff160361168b576040517f08c379a000000000000000000000000000000000000000000000000000000000815260040161168290613645565b60405180910390fd5b611696838383612170565b5f60335f8573ffffffffffffffffffffffffffffffffffffffff1673ffffffffffffffffffffffffffffffffffffffff1681526020019081526020015f205490508181101561171a576040517f08c379a0000000000000000000000000000000000000000000000000000000008152600401611711906136d3565b60405180910390fd5b81810360335f8673ffffffffffffffffffffffffffffffffffffffff1673ffffffffffffffffffffffffffffffffffffffff1681526020019081526020015f20819055508160335f8573ffffffffffffffffffffffffffffffffffffffff1673ffffffffffffffffffffffffffffffffffffffff1681526020019081526020015f205f82825401925050819055508273ffffffffffffffffffffffffffffffffffffffff168473ffffffffffffffffffffffffffffffffffffffff167fddf252ad1be2c89b69c2b068fc378daa952ba7f163c4a11628f55a4df523b3ef846040516118059190612ac8565b60405180910390a3611818848484612188565b50505050565b61182f8161182a61135a565b61218d565b50565b61183c8282611051565b61190957600160fb5f8481526020019081526020015f205f015f8373ffffffffffffffffffffffffffffffffffffffff1673ffffffffffffffffffffffffffffffffffffffff1681526020019081526020015f205f6101000a81548160ff0219169083151502179055506118ae61135a565b73ffffffffffffffffffffffffffffffffffffffff168173ffffffffffffffffffffffffffffffffffffffff16837f2f8788117e7eff1d82e926ec794901d17c78024a50270940304540a733656f0d60405160405180910390a45b5050565b6119178282611051565b156119e4575f60fb5f8481526020019081526020015f205f015f8373ffffffffffffffffffffffffffffffffffffffff1673ffffffffffffffffffffffffffffffffffffffff1681526020019081526020015f205f6101000a81548160ff02191690831515021790555061198961135a565b73ffffffffffffffffffffffffffffffffffffffff168173ffffffffffffffffffffffffffffffffffffffff16837ff6391f5c32d9c69d2a47ea670b442974b53935d1edc7fd64eb21e047a839171b60405160405180910390a45b5050565b5f611a147f360894a13ba1a3210667c828492db98dca3e2076cc3735a920a3ca505d382bbc5f1b612211565b5f015f9054906101000a900473ffffffffffffffffffffffffffffffffffffffff16905090565b7f189ab7a9244df0848122154315af71fe140f3db0fe014031783b0946b8c9d2e3611a658161181e565b5050565b611a947f4910fdfa16fed3260ed0e7147f7cc6da11a60208b5b9406d12a635614ffd91435f1b61221a565b5f015f9054906101000a900460ff1615611ab657611ab183612223565b611bce565b8273ffffffffffffffffffffffffffffffffffffffff166352d1902d6040518163ffffffff1660e01b8152600401602060405180830381865afa925050508015611b1e57506040513d601f19601f82011682018060405250810190611b1b9190613705565b60015b611b5d576040517f08c379a0000000000000000000000000000000000000000000000000000000008152600401611b54906137a0565b60405180910390fd5b7f360894a13ba1a3210667c828492db98dca3e2076cc3735a920a3ca505d382bbc5f1b8114611bc1576040517f08c379a0000000000000000000000000000000000000000000000000000000008152600401611bb89061382e565b60405180910390fd5b50611bcd8383836122d9565b5b505050565b611bdb612304565b5f60975f6101000a81548160ff0219169083151502179055507f5db9ee0a495bf2e6ff9c91a7834c1ba4fdd244a5e8aa4e537bd38aeae4b073aa611c1d61135a565b604051611c2a919061385b565b60405180910390a1565b5f73ffffffffffffffffffffffffffffffffffffffff168273ffffffffffffffffffffffffffffffffffffffff1603611ca2576040517f08c379a0000000000000000000000000000000000000000000000000000000008152600401611c99906138be565b60405180910390fd5b611cad5f8383612170565b8060355f828254611cbe919061318b565b925050819055508060335f8473ffffffffffffffffffffffffffffffffffffffff1673ffffffffffffffffffffffffffffffffffffffff1681526020019081526020015f205f82825401925050819055508173ffffffffffffffffffffffffffffffffffffffff165f73ffffffffffffffffffffffffffffffffffffffff167fddf252ad1be2c89b69c2b068fc378daa952ba7f163c4a11628f55a4df523b3ef83604051611d6c9190612ac8565b60405180910390a3611d7f5f8383612188565b5050565b5f73ffffffffffffffffffffffffffffffffffffffff168273ffffffffffffffffffffffffffffffffffffffff1603611df1576040517f08c379a0000000000000000000000000000000000000000000000000000000008152600401611de89061394c565b60405180910390fd5b611dfc825f83612170565b5f60335f8473ffffffffffffffffffffffffffffffffffffffff1673ffffffffffffffffffffffffffffffffffffffff1681526020019081526020015f2054905081811015611e80576040517f08c379a0000000000000000000000000000000000000000000000000000000008152600401611e77906139da565b60405180910390fd5b81810360335f8573ffffffffffffffffffffffffffffffffffffffff1673ffffffffffffffffffffffffffffffffffffffff1681526020019081526020015f20819055508160355f82825403925050819055505f73ffffffffffffffffffffffffffffffffffffffff168373ffffffffffffffffffffffffffffffffffffffff167fddf252ad1be2c89b69c2b068fc378daa952ba7f163c4a11628f55a4df523b3ef84604051611f309190612ac8565b60405180910390a3611f43835f84612188565b505050565b5f808273ffffffffffffffffffffffffffffffffffffffff163b119050919050565b5f60019054906101000a900460ff16611fb8576040517f08c379a0000000000000000000000000000000000000000000000000000000008152600401611faf90613a68565b60405180910390fd5b611fc2828261234d565b5050565b5f60019054906101000a900460ff16612014576040517f08c379a000000000000000000000000000000000000000000000000000000000815260040161200b90613a68565b60405180910390fd5b565b5f60019054906101000a900460ff16612064576040517f08c379a000000000000000000000000000000000000000000000000000000000815260040161205b90613a68565b60405180910390fd5b61206c6123bf565b565b5f60019054906101000a900460ff166120bc576040517f08c379a00000000000000000000000000000000000000000000000000000000081526004016120b390613a68565b60405180910390fd5b565b5f60019054906101000a900460ff1661210c576040517f08c379a000000000000000000000000000000000000000000000000000000000815260040161210390613a68565b60405180910390fd5b565b612116612428565b600160975f6101000a81548160ff0219169083151502179055507f62e78cea01bee320cd4e420270b5ea74000d11b0c9f74754ebdbfc544b05a25861215961135a565b604051612166919061385b565b60405180910390a1565b612178612428565b612183838383612472565b505050565b505050565b6121978282611051565b61220d576121a481612477565b6121b1835f1c60206124a4565b6040516020016121c2929190613b54565b6040516020818303038152906040526040517f08c379a000000000000000000000000000000000000000000000000000000000815260040161220491906129ce565b60405180910390fd5b5050565b5f819050919050565b5f819050919050565b61222c81611f48565b61226b576040517f08c379a000000000000000000000000000000000000000000000000000000000815260040161226290613bfd565b60405180910390fd5b806122977f360894a13ba1a3210667c828492db98dca3e2076cc3735a920a3ca505d382bbc5f1b612211565b5f015f6101000a81548173ffffffffffffffffffffffffffffffffffffffff021916908373ffffffffffffffffffffffffffffffffffffffff16021790555050565b6122e2836126d9565b5f825111806122ee5750805b156122ff576122fd8383612728565b505b505050565b61230c610fa1565b61234b576040517f08c379a000000000000000000000000000000000000000000000000000000000815260040161234290613c65565b60405180910390fd5b565b5f60019054906101000a900460ff1661239b576040517f08c379a000000000000000000000000000000000000000000000000000000000815260040161239290613a68565b60405180910390fd5b81603690816123aa9190613e17565b5080603790816123ba9190613e17565b505050565b5f60019054906101000a900460ff1661240d576040517f08c379a000000000000000000000000000000000000000000000000000000000815260040161240490613a68565b60405180910390fd5b5f60975f6101000a81548160ff021916908315150217905550565b612430610fa1565b15612470576040517f08c379a000000000000000000000000000000000000000000000000000000000815260040161246790613f30565b60405180910390fd5b565b505050565b606061249d8273ffffffffffffffffffffffffffffffffffffffff16601460ff166124a4565b9050919050565b60605f60028360026124b69190613f4e565b6124c0919061318b565b67ffffffffffffffff8111156124d9576124d8612c87565b5b6040519080825280601f01601f19166020018201604052801561250b5781602001600182028036833780820191505090505b5090507f3000000000000000000000000000000000000000000000000000000000000000815f8151811061254257612541613f8f565b5b60200101907effffffffffffffffffffffffffffffffffffffffffffffffffffffffffffff191690815f1a9053507f7800000000000000000000000000000000000000000000000000000000000000816001815181106125a5576125a4613f8f565b5b60200101907effffffffffffffffffffffffffffffffffffffffffffffffffffffffffffff191690815f1a9053505f60018460026125e39190613f4e565b6125ed919061318b565b90505b600181111561268c577f3031323334353637383961626364656600000000000000000000000000000000600f86166010811061262f5761262e613f8f565b5b1a60f81b82828151811061264657612645613f8f565b5b60200101907effffffffffffffffffffffffffffffffffffffffffffffffffffffffffffff191690815f1a905350600485901c94508061268590613fbc565b90506125f0565b505f84146126cf576040517f08c379a00000000000000000000000000000000000000000000000000000000081526004016126c69061402d565b60405180910390fd5b8091505092915050565b6126e281612223565b8073ffffffffffffffffffffffffffffffffffffffff167fbc7cd75a20ee27fd9adebab32041f755214dbc6bffa90cc0225b39da2e5c2d3b60405160405180910390a250565b606061274d838360405180606001604052806027815260200161410e60279139612755565b905092915050565b60605f808573ffffffffffffffffffffffffffffffffffffffff168560405161277e919061408f565b5f60405180830381855af49150503d805f81146127b6576040519150601f19603f3d011682016040523d82523d5f602084013e6127bb565b606091505b50915091506127cc868383876127d7565b925050509392505050565b60608315612838575f835103612830576127f085611f48565b61282f576040517f08c379a0000000000000000000000000000000000000000000000000000000008152600401612826906140ef565b60405180910390fd5b5b829050612843565b612842838361284b565b5b949350505050565b5f8251111561285d5781518083602001fd5b806040517f08c379a000000000000000000000000000000000000000000000000000000000815260040161289191906129ce565b60405180910390fd5b5f604051905090565b5f80fd5b5f80fd5b5f7fffffffff0000000000000000000000000000000000000000000000000000000082169050919050565b6128df816128ab565b81146128e9575f80fd5b50565b5f813590506128fa816128d6565b92915050565b5f60208284031215612915576129146128a3565b5b5f612922848285016128ec565b91505092915050565b5f8115159050919050565b61293f8161292b565b82525050565b5f6020820190506129585f830184612936565b92915050565b5f81519050919050565b5f82825260208201905092915050565b8281835e5f83830152505050565b5f601f19601f8301169050919050565b5f6129a08261295e565b6129aa8185612968565b93506129ba818560208601612978565b6129c381612986565b840191505092915050565b5f6020820190508181035f8301526129e68184612996565b905092915050565b5f73ffffffffffffffffffffffffffffffffffffffff82169050919050565b5f612a17826129ee565b9050919050565b612a2781612a0d565b8114612a31575f80fd5b50565b5f81359050612a4281612a1e565b92915050565b5f819050919050565b612a5a81612a48565b8114612a64575f80fd5b50565b5f81359050612a7581612a51565b92915050565b5f8060408385031215612a9157612a906128a3565b5b5f612a9e85828601612a34565b9250506020612aaf85828601612a67565b9150509250929050565b612ac281612a48565b82525050565b5f602082019050612adb5f830184612ab9565b92915050565b5f805f60608486031215612af857612af76128a3565b5b5f612b0586828701612a34565b9350506020612b1686828701612a34565b9250506040612b2786828701612a67565b9150509250925092565b5f819050919050565b612b4381612b31565b8114612b4d575f80fd5b50565b5f81359050612b5e81612b3a565b92915050565b5f60208284031215612b7957612b786128a3565b5b5f612b8684828501612b50565b91505092915050565b612b9881612b31565b82525050565b5f602082019050612bb15f830184612b8f565b92915050565b5f8060408385031215612bcd57612bcc6128a3565b5b5f612bda85828601612b50565b9250506020612beb85828601612a34565b9150509250929050565b5f60ff82169050919050565b612c0a81612bf5565b82525050565b5f602082019050612c235f830184612c01565b92915050565b5f60208284031215612c3e57612c3d6128a3565b5b5f612c4b84828501612a34565b91505092915050565b5f60208284031215612c6957612c686128a3565b5b5f612c7684828501612a67565b91505092915050565b5f80fd5b5f80fd5b7f4e487b71000000000000000000000000000000000000000000000000000000005f52604160045260245ffd5b612cbd82612986565b810181811067ffffffffffffffff82111715612cdc57612cdb612c87565b5b80604052505050565b5f612cee61289a565b9050612cfa8282612cb4565b919050565b5f67ffffffffffffffff821115612d1957612d18612c87565b5b612d2282612986565b9050602081019050919050565b828183375f83830152505050565b5f612d4f612d4a84612cff565b612ce5565b905082815260208101848484011115612d6b57612d6a612c83565b5b612d76848285612d2f565b509392505050565b5f82601f830112612d9257612d91612c7f565b5b8135612da2848260208601612d3d565b91505092915050565b5f8060408385031215612dc157612dc06128a3565b5b5f83013567ffffffffffffffff811115612dde57612ddd6128a7565b5b612dea85828601612d7e565b925050602083013567ffffffffffffffff811115612e0b57612e0a6128a7565b5b612e1785828601612d7e565b9150509250929050565b5f67ffffffffffffffff821115612e3b57612e3a612c87565b5b612e4482612986565b9050602081019050919050565b5f612e63612e5e84612e21565b612ce5565b905082815260208101848484011115612e7f57612e7e612c83565b5b612e8a848285612d2f565b509392505050565b5f82601f830112612ea657612ea5612c7f565b5b8135612eb6848260208601612e51565b91505092915050565b5f8060408385031215612ed557612ed46128a3565b5b5f612ee285828601612a34565b925050602083013567ffffffffffffffff811115612f0357612f026128a7565b5b612f0f85828601612e92565b9150509250929050565b5f8060408385031215612f2f57612f2e6128a3565b5b5f612f3c85828601612a34565b9250506020612f4d85828601612a34565b9150509250929050565b7f4e487b71000000000000000000000000000000000000000000000000000000005f52602260045260245ffd5b5f6002820490506001821680612f9b57607f821691505b602082108103612fae57612fad612f57565b5b50919050565b7f416363657373436f6e74726f6c3a2063616e206f6e6c792072656e6f756e63655f8201527f20726f6c657320666f722073656c660000000000000000000000000000000000602082015250565b5f61300e602f83612968565b915061301982612fb4565b604082019050919050565b5f6020820190508181035f83015261303b81613002565b9050919050565b7f46756e6374696f6e206d7573742062652063616c6c6564207468726f756768205f8201527f64656c656761746563616c6c0000000000000000000000000000000000000000602082015250565b5f61309c602c83612968565b91506130a782613042565b604082019050919050565b5f6020820190508181035f8301526130c981613090565b9050919050565b7f46756e6374696f6e206d7573742062652063616c6c6564207468726f756768205f8201527f6163746976652070726f78790000000000000000000000000000000000000000602082015250565b5f61312a602c83612968565b9150613135826130d0565b604082019050919050565b5f6020820190508181035f8301526131578161311e565b9050919050565b7f4e487b71000000000000000000000000000000000000000000000000000000005f52601160045260245ffd5b5f61319582612a48565b91506131a083612a48565b92508282019050808211156131b8576131b761315e565b5b92915050565b7f496e697469616c697a61626c653a20636f6e747261637420697320616c7265615f8201527f647920696e697469616c697a6564000000000000000000000000000000000000602082015250565b5f613218602e83612968565b9150613223826131be565b604082019050919050565b5f6020820190508181035f8301526132458161320c565b9050919050565b5f819050919050565b5f819050919050565b5f61327861327361326e8461324c565b613255565b612bf5565b9050919050565b6132888161325e565b82525050565b5f6020820190506132a15f83018461327f565b92915050565b7f555550535570677261646561626c653a206d757374206e6f742062652063616c5f8201527f6c6564207468726f7567682064656c656761746563616c6c0000000000000000602082015250565b5f613301603883612968565b915061330c826132a7565b604082019050919050565b5f6020820190508181035f83015261332e816132f5565b9050919050565b7f45524332303a2064656372656173656420616c6c6f77616e63652062656c6f775f8201527f207a65726f000000000000000000000000000000000000000000000000000000602082015250565b5f61338f602583612968565b915061339a82613335565b604082019050919050565b5f6020820190508181035f8301526133bc81613383565b9050919050565b7f45524332303a20617070726f76652066726f6d20746865207a65726f206164645f8201527f7265737300000000000000000000000000000000000000000000000000000000602082015250565b5f61341d602483612968565b9150613428826133c3565b604082019050919050565b5f6020820190508181035f83015261344a81613411565b9050919050565b7f45524332303a20617070726f766520746f20746865207a65726f2061646472655f8201527f7373000000000000000000000000000000000000000000000000000000000000602082015250565b5f6134ab602283612968565b91506134b682613451565b604082019050919050565b5f6020820190508181035f8301526134d88161349f565b9050919050565b7f45524332303a20696e73756666696369656e7420616c6c6f77616e63650000005f82015250565b5f613513601d83612968565b915061351e826134df565b602082019050919050565b5f6020820190508181035f83015261354081613507565b9050919050565b7f45524332303a207472616e736665722066726f6d20746865207a65726f2061645f8201527f6472657373000000000000000000000000000000000000000000000000000000602082015250565b5f6135a1602583612968565b91506135ac82613547565b604082019050919050565b5f6020820190508181035f8301526135ce81613595565b9050919050565b7f45524332303a207472616e7366657220746f20746865207a65726f20616464725f8201527f6573730000000000000000000000000000000000000000000000000000000000602082015250565b5f61362f602383612968565b915061363a826135d5565b604082019050919050565b5f6020820190508181035f83015261365c81613623565b9050919050565b7f45524332303a207472616e7366657220616d6f756e74206578636565647320625f8201527f616c616e63650000000000000000000000000000000000000000000000000000602082015250565b5f6136bd602683612968565b91506136c882613663565b604082019050919050565b5f6020820190508181035f8301526136ea816136b1565b9050919050565b5f815190506136ff81612b3a565b92915050565b5f6020828403121561371a576137196128a3565b5b5f613727848285016136f1565b91505092915050565b7f45524331393637557067726164653a206e657720696d706c656d656e746174695f8201527f6f6e206973206e6f742055555053000000000000000000000000000000000000602082015250565b5f61378a602e83612968565b915061379582613730565b604082019050919050565b5f6020820190508181035f8301526137b78161377e565b9050919050565b7f45524331393637557067726164653a20756e737570706f727465642070726f785f8201527f6961626c65555549440000000000000000000000000000000000000000000000602082015250565b5f613818602983612968565b9150613823826137be565b604082019050919050565b5f6020820190508181035f8301526138458161380c565b9050919050565b61385581612a0d565b82525050565b5f60208201905061386e5f83018461384c565b92915050565b7f45524332303a206d696e7420746f20746865207a65726f2061646472657373005f82015250565b5f6138a8601f83612968565b91506138b382613874565b602082019050919050565b5f6020820190508181035f8301526138d58161389c565b9050919050565b7f45524332303a206275726e2066726f6d20746865207a65726f206164647265735f8201527f7300000000000000000000000000000000000000000000000000000000000000602082015250565b5f613936602183612968565b9150613941826138dc565b604082019050919050565b5f6020820190508181035f8301526139638161392a565b9050919050565b7f45524332303a206275726e20616d6f756e7420657863656564732062616c616e5f8201527f6365000000000000000000000000000000000000000000000000000000000000602082015250565b5f6139c4602283612968565b91506139cf8261396a565b604082019050919050565b5f6020820190508181035f8301526139f1816139b8565b9050919050565b7f496e697469616c697a61626c653a20636f6e7472616374206973206e6f7420695f8201527f6e697469616c697a696e67000000000000000000000000000000000000000000602082015250565b5f613a52602b83612968565b9150613a5d826139f8565b604082019050919050565b5f6020820190508181035f830152613a7f81613a46565b9050919050565b5f81905092915050565b7f416363657373436f6e74726f6c3a206163636f756e74200000000000000000005f82015250565b5f613ac4601783613a86565b9150613acf82613a90565b601782019050919050565b5f613ae48261295e565b613aee8185613a86565b9350613afe818560208601612978565b80840191505092915050565b7f206973206d697373696e6720726f6c65200000000000000000000000000000005f82015250565b5f613b3e601183613a86565b9150613b4982613b0a565b601182019050919050565b5f613b5e82613ab8565b9150613b6a8285613ada565b9150613b7582613b32565b9150613b818284613ada565b91508190509392505050565b7f455243313936373a206e657720696d706c656d656e746174696f6e206973206e5f8201527f6f74206120636f6e747261637400000000000000000000000000000000000000602082015250565b5f613be7602d83612968565b9150613bf282613b8d565b604082019050919050565b5f6020820190508181035f830152613c1481613bdb565b9050919050565b7f5061757361626c653a206e6f74207061757365640000000000000000000000005f82015250565b5f613c4f601483612968565b9150613c5a82613c1b565b602082019050919050565b5f6020820190508181035f830152613c7c81613c43565b9050919050565b5f819050815f5260205f209050919050565b5f6020601f8301049050919050565b5f82821b905092915050565b5f60088302613cdf7fffffffffffffffffffffffffffffffffffffffffffffffffffffffffffffffff82613ca4565b613ce98683613ca4565b95508019841693508086168417925050509392505050565b5f613d1b613d16613d1184612a48565b613255565b612a48565b9050919050565b5f819050919050565b613d3483613d01565b613d48613d4082613d22565b848454613cb0565b825550505050565b5f90565b613d5c613d50565b613d67818484613d2b565b505050565b5b81811015613d8a57613d7f5f82613d54565b600181019050613d6d565b5050565b601f821115613dcf57613da081613c83565b613da984613c95565b81016020851015613db8578190505b613dcc613dc485613c95565b830182613d6c565b50505b505050565b5f82821c905092915050565b5f613def5f1984600802613dd4565b1980831691505092915050565b5f613e078383613de0565b9150826002028217905092915050565b613e208261295e565b67ffffffffffffffff811115613e3957613e38612c87565b5b613e438254612f84565b613e4e828285613d8e565b5f60209050601f831160018114613e7f575f8415613e6d578287015190505b613e778582613dfc565b865550613ede565b601f198416613e8d86613c83565b5f5b82811015613eb457848901518255600182019150602085019450602081019050613e8f565b86831015613ed15784890151613ecd601f891682613de0565b8355505b6001600288020188555050505b505050505050565b7f5061757361626c653a20706175736564000000000000000000000000000000005f82015250565b5f613f1a601083612968565b9150613f2582613ee6565b602082019050919050565b5f6020820190508181035f830152613f4781613f0e565b9050919050565b5f613f5882612a48565b9150613f6383612a48565b9250828202613f7181612a48565b91508282048414831517613f8857613f8761315e565b5b5092915050565b7f4e487b71000000000000000000000000000000000000000000000000000000005f52603260045260245ffd5b5f613fc682612a48565b91505f8203613fd857613fd761315e565b5b600182039050919050565b7f537472696e67733a20686578206c656e67746820696e73756666696369656e745f82015250565b5f614017602083612968565b915061402282613fe3565b602082019050919050565b5f6020820190508181035f8301526140448161400b565b9050919050565b5f81519050919050565b5f81905092915050565b5f6140698261404b565b6140738185614055565b9350614083818560208601612978565b80840191505092915050565b5f61409a828461405f565b915081905092915050565b7f416464726573733a2063616c6c20746f206e6f6e2d636f6e74726163740000005f82015250565b5f6140d9601d83612968565b91506140e4826140a5565b602082019050919050565b5f6020820190508181035f830152614106816140cd565b905091905056fe416464726573733a206c6f772d6c6576656c2064656c65676174652063616c6c206661696c6564a26469706673582212206ec70956f86ec51b608d8223e56a58b7ef7db7169cdbfd849a808e5654aacd6c64736f6c63430008190033",
  "immutableReferences": {
    "964": [
      {
        "length": 32,
        "start": 2444
      },
      {
        "length": 32,
        "start": 2586
      },
      {
        "length": 32,
        "start": 3504
      },
      {
        "length": 32,
        "start": 3646
      },
      {
        "length": 32,
        "start": 3821
      }
    ]
  },
  "source": "// SPDX-License-Identifier: MIT\npragma solidity ^0.8.2;\n\nimport \"@openzeppelin/contracts-upgradeable/token/ERC20/ERC20Upgradeable.sol\";\nimport \"@openzeppelin/contracts-upgradeable/token/ERC20/extensions/ERC20BurnableUpgradeable.sol\";\nimport \"@openzeppelin/contracts-upgradeable/security/PausableUpgradeable.sol\";\nimport \"@openzeppelin/contracts-upgradeable/access/AccessControlUpgradeable.sol\";\nimport \"@openzeppelin/contracts-upgradeable/proxy/utils/Initializable.sol\";\nimport \"@openzeppelin/contracts-upgradeable/proxy/utils/UUPSUpgradeable.sol\";\n\ncontract Chex is Initializable, ERC20Upgradeable, ERC20BurnableUpgradeable, PausableUpgradeable, AccessControlUpgradeable, UUPSUpgradeable {\n  bytes32 public constant PAUSER_ROLE = keccak256(\"PAUSER_ROLE\");\n  bytes32 public constant MINTER_ROLE = keccak256(\"MINTER_ROLE\");\n  bytes32 public constant UPGRADER_ROLE = keccak256(\"UPGRADER_ROLE\");\n\n  /// @custom:oz-upgrades-unsafe-allow constructor\n  constructor() initializer {}\n\n  function initialize(string memory name, string memory symbol) initializer public {\n    __ERC20_init(name, symbol);\n    __ERC20Burnable_init();\n    __Pausable_init();\n    __AccessControl_init();\n    __UUPSUpgradeable_init();\n\n    _grantRole(DEFAULT_ADMIN_ROLE, msg.sender);\n    _grantRole(PAUSER_ROLE, msg.sender);\n    _grantRole(MINTER_ROLE, msg.sender);\n    _grantRole(UPGRADER_ROLE, msg.sender);\n  }\n\n  function pause() public onlyRole(PAUSER_ROLE) {\n    _pause();\n  }\n\n  function unpause() public onlyRole(PAUSER_ROLE) {\n    _unpause();\n  }\n\n  function mint(address to, uint256 amount) public onlyRole(MINTER_ROLE) {\n    _mint(to, amount);\n  }\n\n  function _beforeTokenTransfer(address from, address to, uint256 amount)\n    internal\n    whenNotPaused\n    override\n    {\n      super._beforeTokenTransfer(from, to, amount);\n    }\n\n  function _authorizeUpgrade(address newImplementation)\n    internal\n    onlyRole(UPGRADER_ROLE)\n    override\n    {}\n}\n",
  "sourcePath": "/Users/phamnett/WebstormProjects/ethsc-chex/contracts/Chex.sol",
  "compiler": {
    "name": "solc",
    "version": "0.8.25+commit.b61c2a91.Emscripten.clang"
  },
  "schemaVersion": "3.4.16",
  "updatedAt": "2024-05-22T08:36:01.852Z",
  "networkType": "ethereum",
  "devdoc": {
    "events": {
      "AdminChanged(address,address)": {
        "details": "Emitted when the admin account has changed."
      },
      "Approval(address,address,uint256)": {
        "details": "Emitted when the allowance of a `spender` for an `owner` is set by a call to {approve}. `value` is the new allowance."
      },
      "BeaconUpgraded(address)": {
        "details": "Emitted when the beacon is changed."
      },
      "Initialized(uint8)": {
        "details": "Triggered when the contract has been initialized or reinitialized."
      },
      "Paused(address)": {
        "details": "Emitted when the pause is triggered by `account`."
      },
      "RoleAdminChanged(bytes32,bytes32,bytes32)": {
        "details": "Emitted when `newAdminRole` is set as ``role``'s admin role, replacing `previousAdminRole` `DEFAULT_ADMIN_ROLE` is the starting admin for all roles, despite {RoleAdminChanged} not being emitted signaling this. _Available since v3.1._"
      },
      "RoleGranted(bytes32,address,address)": {
        "details": "Emitted when `account` is granted `role`. `sender` is the account that originated the contract call, an admin role bearer except when using {AccessControl-_setupRole}."
      },
      "RoleRevoked(bytes32,address,address)": {
        "details": "Emitted when `account` is revoked `role`. `sender` is the account that originated the contract call:   - if using `revokeRole`, it is the admin role bearer   - if using `renounceRole`, it is the role bearer (i.e. `account`)"
      },
      "Transfer(address,address,uint256)": {
        "details": "Emitted when `value` tokens are moved from one account (`from`) to another (`to`). Note that `value` may be zero."
      },
      "Unpaused(address)": {
        "details": "Emitted when the pause is lifted by `account`."
      },
      "Upgraded(address)": {
        "details": "Emitted when the implementation is upgraded."
      }
    },
    "kind": "dev",
    "methods": {
      "allowance(address,address)": {
        "details": "See {IERC20-allowance}."
      },
      "approve(address,uint256)": {
        "details": "See {IERC20-approve}. NOTE: If `amount` is the maximum `uint256`, the allowance is not updated on `transferFrom`. This is semantically equivalent to an infinite approval. Requirements: - `spender` cannot be the zero address."
      },
      "balanceOf(address)": {
        "details": "See {IERC20-balanceOf}."
      },
      "burn(uint256)": {
        "details": "Destroys `amount` tokens from the caller. See {ERC20-_burn}."
      },
      "burnFrom(address,uint256)": {
        "details": "Destroys `amount` tokens from `account`, deducting from the caller's allowance. See {ERC20-_burn} and {ERC20-allowance}. Requirements: - the caller must have allowance for ``accounts``'s tokens of at least `amount`."
      },
      "constructor": {
        "custom:oz-upgrades-unsafe-allow": "constructor"
      },
      "decimals()": {
        "details": "Returns the number of decimals used to get its user representation. For example, if `decimals` equals `2`, a balance of `505` tokens should be displayed to a user as `5.05` (`505 / 10 ** 2`). Tokens usually opt for a value of 18, imitating the relationship between Ether and Wei. This is the default value returned by this function, unless it's overridden. NOTE: This information is only used for _display_ purposes: it in no way affects any of the arithmetic of the contract, including {IERC20-balanceOf} and {IERC20-transfer}."
      },
      "decreaseAllowance(address,uint256)": {
        "details": "Atomically decreases the allowance granted to `spender` by the caller. This is an alternative to {approve} that can be used as a mitigation for problems described in {IERC20-approve}. Emits an {Approval} event indicating the updated allowance. Requirements: - `spender` cannot be the zero address. - `spender` must have allowance for the caller of at least `subtractedValue`."
      },
      "getRoleAdmin(bytes32)": {
        "details": "Returns the admin role that controls `role`. See {grantRole} and {revokeRole}. To change a role's admin, use {_setRoleAdmin}."
      },
      "grantRole(bytes32,address)": {
        "details": "Grants `role` to `account`. If `account` had not been already granted `role`, emits a {RoleGranted} event. Requirements: - the caller must have ``role``'s admin role. May emit a {RoleGranted} event."
      },
      "hasRole(bytes32,address)": {
        "details": "Returns `true` if `account` has been granted `role`."
      },
      "increaseAllowance(address,uint256)": {
        "details": "Atomically increases the allowance granted to `spender` by the caller. This is an alternative to {approve} that can be used as a mitigation for problems described in {IERC20-approve}. Emits an {Approval} event indicating the updated allowance. Requirements: - `spender` cannot be the zero address."
      },
      "name()": {
        "details": "Returns the name of the token."
      },
      "paused()": {
        "details": "Returns true if the contract is paused, and false otherwise."
      },
      "proxiableUUID()": {
        "details": "Implementation of the ERC1822 {proxiableUUID} function. This returns the storage slot used by the implementation. It is used to validate the implementation's compatibility when performing an upgrade. IMPORTANT: A proxy pointing at a proxiable contract should not be considered proxiable itself, because this risks bricking a proxy that upgrades to it, by delegating to itself until out of gas. Thus it is critical that this function revert if invoked through a proxy. This is guaranteed by the `notDelegated` modifier."
      },
      "renounceRole(bytes32,address)": {
        "details": "Revokes `role` from the calling account. Roles are often managed via {grantRole} and {revokeRole}: this function's purpose is to provide a mechanism for accounts to lose their privileges if they are compromised (such as when a trusted device is misplaced). If the calling account had been revoked `role`, emits a {RoleRevoked} event. Requirements: - the caller must be `account`. May emit a {RoleRevoked} event."
      },
      "revokeRole(bytes32,address)": {
        "details": "Revokes `role` from `account`. If `account` had been granted `role`, emits a {RoleRevoked} event. Requirements: - the caller must have ``role``'s admin role. May emit a {RoleRevoked} event."
      },
      "supportsInterface(bytes4)": {
        "details": "See {IERC165-supportsInterface}."
      },
      "symbol()": {
        "details": "Returns the symbol of the token, usually a shorter version of the name."
      },
      "totalSupply()": {
        "details": "See {IERC20-totalSupply}."
      },
      "transfer(address,uint256)": {
        "details": "See {IERC20-transfer}. Requirements: - `to` cannot be the zero address. - the caller must have a balance of at least `amount`."
      },
      "transferFrom(address,address,uint256)": {
        "details": "See {IERC20-transferFrom}. Emits an {Approval} event indicating the updated allowance. This is not required by the EIP. See the note at the beginning of {ERC20}. NOTE: Does not update the allowance if the current allowance is the maximum `uint256`. Requirements: - `from` and `to` cannot be the zero address. - `from` must have a balance of at least `amount`. - the caller must have allowance for ``from``'s tokens of at least `amount`."
      },
      "upgradeTo(address)": {
        "custom:oz-upgrades-unsafe-allow-reachable": "delegatecall",
        "details": "Upgrade the implementation of the proxy to `newImplementation`. Calls {_authorizeUpgrade}. Emits an {Upgraded} event."
      },
      "upgradeToAndCall(address,bytes)": {
        "custom:oz-upgrades-unsafe-allow-reachable": "delegatecall",
        "details": "Upgrade the implementation of the proxy to `newImplementation`, and subsequently execute the function call encoded in `data`. Calls {_authorizeUpgrade}. Emits an {Upgraded} event."
      }
    },
    "version": 1
  },
  "userdoc": {
    "kind": "user",
    "methods": {},
    "version": 1
  }
}