{
  "contractName": "ChexV3",
  "abi": [
    {
      "inputs": [],
      "stateMutability": "nonpayable",
      "type": "constructor"
    },
    {
      "anonymous": false,
      "inputs": [
        {
          "indexed": false,
          "internalType": "address",
          "name": "previousAdmin",
          "type": "address"
        },
        {
          "indexed": false,
          "internalType": "address",
          "name": "newAdmin",
          "type": "address"
        }
      ],
      "name": "AdminChanged",
      "type": "event"
    },
    {
      "anonymous": false,
      "inputs": [
        {
          "indexed": true,
          "internalType": "address",
          "name": "owner",
          "type": "address"
        },
        {
          "indexed": true,
          "internalType": "address",
          "name": "spender",
          "type": "address"
        },
        {
          "indexed": false,
          "internalType": "uint256",
          "name": "value",
          "type": "uint256"
        }
      ],
      "name": "Approval",
      "type": "event"
    },
    {
      "anonymous": false,
      "inputs": [
        {
          "indexed": true,
          "internalType": "address",
          "name": "beacon",
          "type": "address"
        }
      ],
      "name": "BeaconUpgraded",
      "type": "event"
    },
    {
      "anonymous": false,
      "inputs": [
        {
          "indexed": false,
          "internalType": "uint8",
          "name": "version",
          "type": "uint8"
        }
      ],
      "name": "Initialized",
      "type": "event"
    },
    {
      "anonymous": false,
      "inputs": [
        {
          "indexed": false,
          "internalType": "address",
          "name": "account",
          "type": "address"
        }
      ],
      "name": "Paused",
      "type": "event"
    },
    {
      "anonymous": false,
      "inputs": [
        {
          "indexed": true,
          "internalType": "bytes32",
          "name": "role",
          "type": "bytes32"
        },
        {
          "indexed": true,
          "internalType": "bytes32",
          "name": "previousAdminRole",
          "type": "bytes32"
        },
        {
          "indexed": true,
          "internalType": "bytes32",
          "name": "newAdminRole",
          "type": "bytes32"
        }
      ],
      "name": "RoleAdminChanged",
      "type": "event"
    },
    {
      "anonymous": false,
      "inputs": [
        {
          "indexed": true,
          "internalType": "bytes32",
          "name": "role",
          "type": "bytes32"
        },
        {
          "indexed": true,
          "internalType": "address",
          "name": "account",
          "type": "address"
        },
        {
          "indexed": true,
          "internalType": "address",
          "name": "sender",
          "type": "address"
        }
      ],
      "name": "RoleGranted",
      "type": "event"
    },
    {
      "anonymous": false,
      "inputs": [
        {
          "indexed": true,
          "internalType": "bytes32",
          "name": "role",
          "type": "bytes32"
        },
        {
          "indexed": true,
          "internalType": "address",
          "name": "account",
          "type": "address"
        },
        {
          "indexed": true,
          "internalType": "address",
          "name": "sender",
          "type": "address"
        }
      ],
      "name": "RoleRevoked",
      "type": "event"
    },
    {
      "anonymous": false,
      "inputs": [
        {
          "indexed": true,
          "internalType": "address",
          "name": "from",
          "type": "address"
        },
        {
          "indexed": true,
          "internalType": "address",
          "name": "to",
          "type": "address"
        },
        {
          "indexed": false,
          "internalType": "uint256",
          "name": "value",
          "type": "uint256"
        }
      ],
      "name": "Transfer",
      "type": "event"
    },
    {
      "anonymous": false,
      "inputs": [
        {
          "indexed": false,
          "internalType": "address",
          "name": "account",
          "type": "address"
        }
      ],
      "name": "Unpaused",
      "type": "event"
    },
    {
      "anonymous": false,
      "inputs": [
        {
          "indexed": true,
          "internalType": "address",
          "name": "implementation",
          "type": "address"
        }
      ],
      "name": "Upgraded",
      "type": "event"
    },
    {
      "inputs": [],
      "name": "DEFAULT_ADMIN_ROLE",
      "outputs": [
        {
          "internalType": "bytes32",
          "name": "",
          "type": "bytes32"
        }
      ],
      "stateMutability": "view",
      "type": "function"
    },
    {
      "inputs": [],
      "name": "MINTER_ROLE",
      "outputs": [
        {
          "internalType": "bytes32",
          "name": "",
          "type": "bytes32"
        }
      ],
      "stateMutability": "view",
      "type": "function"
    },
    {
      "inputs": [],
      "name": "PAUSER_ROLE",
      "outputs": [
        {
          "internalType": "bytes32",
          "name": "",
          "type": "bytes32"
        }
      ],
      "stateMutability": "view",
      "type": "function"
    },
    {
      "inputs": [],
      "name": "UPGRADER_ROLE",
      "outputs": [
        {
          "internalType": "bytes32",
          "name": "",
          "type": "bytes32"
        }
      ],
      "stateMutability": "view",
      "type": "function"
    },
    {
      "inputs": [
        {
          "internalType": "address",
          "name": "owner",
          "type": "address"
        },
        {
          "internalType": "address",
          "name": "spender",
          "type": "address"
        }
      ],
      "name": "allowance",
      "outputs": [
        {
          "internalType": "uint256",
          "name": "",
          "type": "uint256"
        }
      ],
      "stateMutability": "view",
      "type": "function"
    },
    {
      "inputs": [
        {
          "internalType": "address",
          "name": "spender",
          "type": "address"
        },
        {
          "internalType": "uint256",
          "name": "amount",
          "type": "uint256"
        }
      ],
      "name": "approve",
      "outputs": [
        {
          "internalType": "bool",
          "name": "",
          "type": "bool"
        }
      ],
      "stateMutability": "nonpayable",
      "type": "function"
    },
    {
      "inputs": [
        {
          "internalType": "address",
          "name": "account",
          "type": "address"
        }
      ],
      "name": "balanceOf",
      "outputs": [
        {
          "internalType": "uint256",
          "name": "",
          "type": "uint256"
        }
      ],
      "stateMutability": "view",
      "type": "function"
    },
    {
      "inputs": [
        {
          "internalType": "uint256",
          "name": "amount",
          "type": "uint256"
        }
      ],
      "name": "burn",
      "outputs": [],
      "stateMutability": "nonpayable",
      "type": "function"
    },
    {
      "inputs": [
        {
          "internalType": "address",
          "name": "account",
          "type": "address"
        },
        {
          "internalType": "uint256",
          "name": "amount",
          "type": "uint256"
        }
      ],
      "name": "burnFrom",
      "outputs": [],
      "stateMutability": "nonpayable",
      "type": "function"
    },
    {
      "inputs": [],
      "name": "decimals",
      "outputs": [
        {
          "internalType": "uint8",
          "name": "",
          "type": "uint8"
        }
      ],
      "stateMutability": "view",
      "type": "function"
    },
    {
      "inputs": [
        {
          "internalType": "address",
          "name": "spender",
          "type": "address"
        },
        {
          "internalType": "uint256",
          "name": "subtractedValue",
          "type": "uint256"
        }
      ],
      "name": "decreaseAllowance",
      "outputs": [
        {
          "internalType": "bool",
          "name": "",
          "type": "bool"
        }
      ],
      "stateMutability": "nonpayable",
      "type": "function"
    },
    {
      "inputs": [
        {
          "internalType": "bytes32",
          "name": "role",
          "type": "bytes32"
        }
      ],
      "name": "getRoleAdmin",
      "outputs": [
        {
          "internalType": "bytes32",
          "name": "",
          "type": "bytes32"
        }
      ],
      "stateMutability": "view",
      "type": "function"
    },
    {
      "inputs": [
        {
          "internalType": "bytes32",
          "name": "role",
          "type": "bytes32"
        },
        {
          "internalType": "address",
          "name": "account",
          "type": "address"
        }
      ],
      "name": "grantRole",
      "outputs": [],
      "stateMutability": "nonpayable",
      "type": "function"
    },
    {
      "inputs": [
        {
          "internalType": "bytes32",
          "name": "role",
          "type": "bytes32"
        },
        {
          "internalType": "address",
          "name": "account",
          "type": "address"
        }
      ],
      "name": "hasRole",
      "outputs": [
        {
          "internalType": "bool",
          "name": "",
          "type": "bool"
        }
      ],
      "stateMutability": "view",
      "type": "function"
    },
    {
      "inputs": [
        {
          "internalType": "address",
          "name": "spender",
          "type": "address"
        },
        {
          "internalType": "uint256",
          "name": "addedValue",
          "type": "uint256"
        }
      ],
      "name": "increaseAllowance",
      "outputs": [
        {
          "internalType": "bool",
          "name": "",
          "type": "bool"
        }
      ],
      "stateMutability": "nonpayable",
      "type": "function"
    },
    {
      "inputs": [],
      "name": "paused",
      "outputs": [
        {
          "internalType": "bool",
          "name": "",
          "type": "bool"
        }
      ],
      "stateMutability": "view",
      "type": "function"
    },
    {
      "inputs": [],
      "name": "proxiableUUID",
      "outputs": [
        {
          "internalType": "bytes32",
          "name": "",
          "type": "bytes32"
        }
      ],
      "stateMutability": "view",
      "type": "function"
    },
    {
      "inputs": [
        {
          "internalType": "bytes32",
          "name": "role",
          "type": "bytes32"
        },
        {
          "internalType": "address",
          "name": "account",
          "type": "address"
        }
      ],
      "name": "renounceRole",
      "outputs": [],
      "stateMutability": "nonpayable",
      "type": "function"
    },
    {
      "inputs": [
        {
          "internalType": "bytes32",
          "name": "role",
          "type": "bytes32"
        },
        {
          "internalType": "address",
          "name": "account",
          "type": "address"
        }
      ],
      "name": "revokeRole",
      "outputs": [],
      "stateMutability": "nonpayable",
      "type": "function"
    },
    {
      "inputs": [
        {
          "internalType": "bytes4",
          "name": "interfaceId",
          "type": "bytes4"
        }
      ],
      "name": "supportsInterface",
      "outputs": [
        {
          "internalType": "bool",
          "name": "",
          "type": "bool"
        }
      ],
      "stateMutability": "view",
      "type": "function"
    },
    {
      "inputs": [],
      "name": "totalSupply",
      "outputs": [
        {
          "internalType": "uint256",
          "name": "",
          "type": "uint256"
        }
      ],
      "stateMutability": "view",
      "type": "function"
    },
    {
      "inputs": [
        {
          "internalType": "address",
          "name": "to",
          "type": "address"
        },
        {
          "internalType": "uint256",
          "name": "amount",
          "type": "uint256"
        }
      ],
      "name": "transfer",
      "outputs": [
        {
          "internalType": "bool",
          "name": "",
          "type": "bool"
        }
      ],
      "stateMutability": "nonpayable",
      "type": "function"
    },
    {
      "inputs": [
        {
          "internalType": "address",
          "name": "from",
          "type": "address"
        },
        {
          "internalType": "address",
          "name": "to",
          "type": "address"
        },
        {
          "internalType": "uint256",
          "name": "amount",
          "type": "uint256"
        }
      ],
      "name": "transferFrom",
      "outputs": [
        {
          "internalType": "bool",
          "name": "",
          "type": "bool"
        }
      ],
      "stateMutability": "nonpayable",
      "type": "function"
    },
    {
      "inputs": [
        {
          "internalType": "address",
          "name": "newImplementation",
          "type": "address"
        }
      ],
      "name": "upgradeTo",
      "outputs": [],
      "stateMutability": "nonpayable",
      "type": "function"
    },
    {
      "inputs": [
        {
          "internalType": "address",
          "name": "newImplementation",
          "type": "address"
        },
        {
          "internalType": "bytes",
          "name": "data",
          "type": "bytes"
        }
      ],
      "name": "upgradeToAndCall",
      "outputs": [],
      "stateMutability": "payable",
      "type": "function"
    },
    {
      "inputs": [
        {
          "internalType": "string",
          "name": "name_",
          "type": "string"
        },
        {
          "internalType": "string",
          "name": "symbol_",
          "type": "string"
        }
      ],
      "name": "initialize",
      "outputs": [],
      "stateMutability": "nonpayable",
      "type": "function"
    },
    {
      "inputs": [],
      "name": "pause",
      "outputs": [],
      "stateMutability": "nonpayable",
      "type": "function"
    },
    {
      "inputs": [],
      "name": "unpause",
      "outputs": [],
      "stateMutability": "nonpayable",
      "type": "function"
    },
    {
      "inputs": [],
      "name": "name",
      "outputs": [
        {
          "internalType": "string",
          "name": "",
          "type": "string"
        }
      ],
      "stateMutability": "pure",
      "type": "function"
    },
    {
      "inputs": [],
      "name": "symbol",
      "outputs": [
        {
          "internalType": "string",
          "name": "",
          "type": "string"
        }
      ],
      "stateMutability": "pure",
      "type": "function"
    },
    {
      "inputs": [
        {
          "internalType": "uint256",
          "name": "amount",
          "type": "uint256"
        }
      ],
      "name": "setMaxSupply",
      "outputs": [],
      "stateMutability": "nonpayable",
      "type": "function"
    },
    {
      "inputs": [],
      "name": "maxSupply",
      "outputs": [
        {
          "internalType": "uint256",
          "name": "",
          "type": "uint256"
        }
      ],
      "stateMutability": "view",
      "type": "function"
    },
    {
      "inputs": [
        {
          "internalType": "address",
          "name": "to",
          "type": "address"
        },
        {
          "internalType": "uint256",
          "name": "amount",
          "type": "uint256"
        }
      ],
      "name": "mint",
      "outputs": [],
      "stateMutability": "nonpayable",
      "type": "function"
    }
  ],
  "bytecode": "0x60a06040523073ffffffffffffffffffffffffffffffffffffffff1660809073ffffffffffffffffffffffffffffffffffffffff16815250348015610042575f80fd5b505f8060019054906101000a900460ff16159050808015610072575060015f8054906101000a900460ff1660ff16105b806100a457506100873061017c60201b60201c565b1580156100a3575060015f8054906101000a900460ff1660ff16145b5b6100e3576040517f08c379a00000000000000000000000000000000000000000000000000000000081526004016100da9061021e565b60405180910390fd5b60015f806101000a81548160ff021916908360ff160217905550801561011e5760015f60016101000a81548160ff0219169083151502179055505b8015610176575f8060016101000a81548160ff0219169083151502179055507f7f26b83ff96e1f2b6a682f133852f6798a09c465da95921460cefb3847402498600160405161016d919061028a565b60405180910390a15b506102a3565b5f808273ffffffffffffffffffffffffffffffffffffffff163b119050919050565b5f82825260208201905092915050565b7f496e697469616c697a61626c653a20636f6e747261637420697320616c7265615f8201527f647920696e697469616c697a6564000000000000000000000000000000000000602082015250565b5f610208602e8361019e565b9150610213826101ae565b604082019050919050565b5f6020820190508181035f830152610235816101fc565b9050919050565b5f819050919050565b5f60ff82169050919050565b5f819050919050565b5f61027461026f61026a8461023c565b610251565b610245565b9050919050565b6102848161025a565b82525050565b5f60208201905061029d5f83018461027b565b92915050565b6080516143186102d75f395f81816109a101528181610a2f01528181610e3101528181610ebf0152610f6e01526143185ff3fe6080604052600436106101ed575f3560e01c806352d1902d1161010c578063a217fddf1161009f578063d547741f1161006e578063d547741f146106e5578063d5abeb011461070d578063dd62ed3e14610737578063e63ab1e914610773578063f72c0d8b1461079d576101ed565b8063a217fddf14610619578063a457c2d714610643578063a9059cbb1461067f578063d5391393146106bb576101ed565b806379cc6790116100db57806379cc6790146105755780638456cb591461059d57806391d14854146105b357806395d89b41146105ef576101ed565b806352d1902d146104bd5780635c975abb146104e75780636f8b44b01461051157806370a0823114610539576101ed565b806336568abe1161018457806340c10f191161015357806340c10f191461042957806342966c68146104515780634cd88b76146104795780634f1ef286146104a1576101ed565b806336568abe146103875780633659cfe6146103af57806339509351146103d75780633f4ba83a14610413576101ed565b806323b872dd116101c057806323b872dd146102bd578063248a9ca3146102f95780632f2ff15d14610335578063313ce5671461035d576101ed565b806301ffc9a7146101f157806306fdde031461022d578063095ea7b31461025757806318160ddd14610293575b5f80fd5b3480156101fc575f80fd5b50610217600480360381019061021291906129b8565b6107c7565b60405161022491906129fd565b60405180910390f35b348015610238575f80fd5b50610241610840565b60405161024e9190612a86565b60405180910390f35b348015610262575f80fd5b5061027d60048036038101906102789190612b33565b61087d565b60405161028a91906129fd565b60405180910390f35b34801561029e575f80fd5b506102a761089f565b6040516102b49190612b80565b60405180910390f35b3480156102c8575f80fd5b506102e360048036038101906102de9190612b99565b6108a8565b6040516102f091906129fd565b60405180910390f35b348015610304575f80fd5b5061031f600480360381019061031a9190612c1c565b6108d6565b60405161032c9190612c56565b60405180910390f35b348015610340575f80fd5b5061035b60048036038101906103569190612c6f565b6108f3565b005b348015610368575f80fd5b50610371610914565b60405161037e9190612cc8565b60405180910390f35b348015610392575f80fd5b506103ad60048036038101906103a89190612c6f565b61091c565b005b3480156103ba575f80fd5b506103d560048036038101906103d09190612ce1565b61099f565b005b3480156103e2575f80fd5b506103fd60048036038101906103f89190612b33565b610b25565b60405161040a91906129fd565b60405180910390f35b34801561041e575f80fd5b50610427610b5b565b005b348015610434575f80fd5b5061044f600480360381019061044a9190612b33565b610b90565b005b34801561045c575f80fd5b5061047760048036038101906104729190612d0c565b610c21565b005b348015610484575f80fd5b5061049f600480360381019061049a9190612e63565b610c35565b005b6104bb60048036038101906104b69190612f77565b610e2f565b005b3480156104c8575f80fd5b506104d1610f6b565b6040516104de9190612c56565b60405180910390f35b3480156104f2575f80fd5b506104fb611022565b60405161050891906129fd565b60405180910390f35b34801561051c575f80fd5b5061053760048036038101906105329190612d0c565b611037565b005b348015610544575f80fd5b5061055f600480360381019061055a9190612ce1565b6110b7565b60405161056c9190612b80565b60405180910390f35b348015610580575f80fd5b5061059b60048036038101906105969190612b33565b6110fd565b005b3480156105a8575f80fd5b506105b161111d565b005b3480156105be575f80fd5b506105d960048036038101906105d49190612c6f565b611152565b6040516105e691906129fd565b60405180910390f35b3480156105fa575f80fd5b506106036111b6565b6040516106109190612a86565b60405180910390f35b348015610624575f80fd5b5061062d6111f3565b60405161063a9190612c56565b60405180910390f35b34801561064e575f80fd5b5061066960048036038101906106649190612b33565b6111f9565b60405161067691906129fd565b60405180910390f35b34801561068a575f80fd5b506106a560048036038101906106a09190612b33565b61126e565b6040516106b291906129fd565b60405180910390f35b3480156106c6575f80fd5b506106cf611290565b6040516106dc9190612c56565b60405180910390f35b3480156106f0575f80fd5b5061070b60048036038101906107069190612c6f565b6112b4565b005b348015610718575f80fd5b506107216112d5565b60405161072e9190612b80565b60405180910390f35b348015610742575f80fd5b5061075d60048036038101906107589190612fd1565b6112df565b60405161076a9190612b80565b60405180910390f35b34801561077e575f80fd5b50610787611361565b6040516107949190612c56565b60405180910390f35b3480156107a8575f80fd5b506107b1611385565b6040516107be9190612c56565b60405180910390f35b5f7f7965db0b000000000000000000000000000000000000000000000000000000007bffffffffffffffffffffffffffffffffffffffffffffffffffffffff1916827bffffffffffffffffffffffffffffffffffffffffffffffffffffffff191614806108395750610838826113a9565b5b9050919050565b60606040518060400160405280601681526020017f4368696e7461692045786368616e676520546f6b656e00000000000000000000815250905090565b5f80610887611412565b9050610894818585611419565b600191505092915050565b5f603554905090565b5f806108b2611412565b90506108bf8582856115dc565b6108ca858585611667565b60019150509392505050565b5f60fb5f8381526020019081526020015f20600101549050919050565b6108fc826108d6565b610905816118d6565b61090f83836118ea565b505050565b5f6012905090565b610924611412565b73ffffffffffffffffffffffffffffffffffffffff168173ffffffffffffffffffffffffffffffffffffffff1614610991576040517f08c379a00000000000000000000000000000000000000000000000000000000081526004016109889061307f565b60405180910390fd5b61099b82826119c5565b5050565b7f000000000000000000000000000000000000000000000000000000000000000073ffffffffffffffffffffffffffffffffffffffff163073ffffffffffffffffffffffffffffffffffffffff1603610a2d576040517f08c379a0000000000000000000000000000000000000000000000000000000008152600401610a249061310d565b60405180910390fd5b7f000000000000000000000000000000000000000000000000000000000000000073ffffffffffffffffffffffffffffffffffffffff16610a6c611aa0565b73ffffffffffffffffffffffffffffffffffffffff1614610ac2576040517f08c379a0000000000000000000000000000000000000000000000000000000008152600401610ab99061319b565b60405180910390fd5b610acb81611af3565b610b22815f67ffffffffffffffff811115610ae957610ae8612d3f565b5b6040519080825280601f01601f191660200182016040528015610b1b5781602001600182028036833780820191505090505b505f611b21565b50565b5f80610b2f611412565b9050610b50818585610b4185896112df565b610b4b91906131e6565b611419565b600191505092915050565b7f65d7a28e3265b37a6474929f336521b332c1681b933f6cb9f3376673440d862a610b85816118d6565b610b8d611c8b565b50565b7f9f2df0fed2c77648de5860a4cc508cd0818c85b8b8a1ab4ceeef8d981c8956a6610bba816118d6565b6101915482610bc761089f565b610bd191906131e6565b1115610c12576040517f08c379a0000000000000000000000000000000000000000000000000000000008152600401610c0990613263565b60405180910390fd5b610c1c8383611cec565b505050565b610c32610c2c611412565b82611e3b565b50565b5f8060019054906101000a900460ff16159050808015610c64575060015f8054906101000a900460ff1660ff16105b80610c905750610c7330612000565b158015610c8f575060015f8054906101000a900460ff1660ff16145b5b610ccf576040517f08c379a0000000000000000000000000000000000000000000000000000000008152600401610cc6906132f1565b60405180910390fd5b60015f806101000a81548160ff021916908360ff1602179055508015610d0a5760015f60016101000a81548160ff0219169083151502179055505b610d148383612022565b610d1c61207e565b610d246120ce565b610d2c612126565b610d34612176565b610d405f801b336118ea565b610d6a7f65d7a28e3265b37a6474929f336521b332c1681b933f6cb9f3376673440d862a336118ea565b610d947f9f2df0fed2c77648de5860a4cc508cd0818c85b8b8a1ab4ceeef8d981c8956a6336118ea565b610dbe7f189ab7a9244df0848122154315af71fe140f3db0fe014031783b0946b8c9d2e3336118ea565b6b033b2e3c9fd0803ce8000000610191819055508015610e2a575f8060016101000a81548160ff0219169083151502179055507f7f26b83ff96e1f2b6a682f133852f6798a09c465da95921460cefb38474024986001604051610e219190613351565b60405180910390a15b505050565b7f000000000000000000000000000000000000000000000000000000000000000073ffffffffffffffffffffffffffffffffffffffff163073ffffffffffffffffffffffffffffffffffffffff1603610ebd576040517f08c379a0000000000000000000000000000000000000000000000000000000008152600401610eb49061310d565b60405180910390fd5b7f000000000000000000000000000000000000000000000000000000000000000073ffffffffffffffffffffffffffffffffffffffff16610efc611aa0565b73ffffffffffffffffffffffffffffffffffffffff1614610f52576040517f08c379a0000000000000000000000000000000000000000000000000000000008152600401610f499061319b565b60405180910390fd5b610f5b82611af3565b610f6782826001611b21565b5050565b5f7f000000000000000000000000000000000000000000000000000000000000000073ffffffffffffffffffffffffffffffffffffffff163073ffffffffffffffffffffffffffffffffffffffff1614610ffa576040517f08c379a0000000000000000000000000000000000000000000000000000000008152600401610ff1906133da565b60405180910390fd5b7f360894a13ba1a3210667c828492db98dca3e2076cc3735a920a3ca505d382bbc5f1b905090565b5f60975f9054906101000a900460ff16905090565b7f9f2df0fed2c77648de5860a4cc508cd0818c85b8b8a1ab4ceeef8d981c8956a6611061816118d6565b61106961089f565b8210156110ab576040517f08c379a00000000000000000000000000000000000000000000000000000000081526004016110a290613468565b60405180910390fd5b81610191819055505050565b5f60335f8373ffffffffffffffffffffffffffffffffffffffff1673ffffffffffffffffffffffffffffffffffffffff1681526020019081526020015f20549050919050565b61110f82611109611412565b836115dc565b6111198282611e3b565b5050565b7f65d7a28e3265b37a6474929f336521b332c1681b933f6cb9f3376673440d862a611147816118d6565b61114f6121c6565b50565b5f60fb5f8481526020019081526020015f205f015f8373ffffffffffffffffffffffffffffffffffffffff1673ffffffffffffffffffffffffffffffffffffffff1681526020019081526020015f205f9054906101000a900460ff16905092915050565b60606040518060400160405280600481526020017f4348455800000000000000000000000000000000000000000000000000000000815250905090565b5f801b81565b5f80611203611412565b90505f61121082866112df565b905083811015611255576040517f08c379a000000000000000000000000000000000000000000000000000000000815260040161124c906134f6565b60405180910390fd5b6112628286868403611419565b60019250505092915050565b5f80611278611412565b9050611285818585611667565b600191505092915050565b7f9f2df0fed2c77648de5860a4cc508cd0818c85b8b8a1ab4ceeef8d981c8956a681565b6112bd826108d6565b6112c6816118d6565b6112d083836119c5565b505050565b5f61019154905090565b5f60345f8473ffffffffffffffffffffffffffffffffffffffff1673ffffffffffffffffffffffffffffffffffffffff1681526020019081526020015f205f8373ffffffffffffffffffffffffffffffffffffffff1673ffffffffffffffffffffffffffffffffffffffff1681526020019081526020015f2054905092915050565b7f65d7a28e3265b37a6474929f336521b332c1681b933f6cb9f3376673440d862a81565b7f189ab7a9244df0848122154315af71fe140f3db0fe014031783b0946b8c9d2e381565b5f7f01ffc9a7000000000000000000000000000000000000000000000000000000007bffffffffffffffffffffffffffffffffffffffffffffffffffffffff1916827bffffffffffffffffffffffffffffffffffffffffffffffffffffffff1916149050919050565b5f33905090565b5f73ffffffffffffffffffffffffffffffffffffffff168373ffffffffffffffffffffffffffffffffffffffff1603611487576040517f08c379a000000000000000000000000000000000000000000000000000000000815260040161147e90613584565b60405180910390fd5b5f73ffffffffffffffffffffffffffffffffffffffff168273ffffffffffffffffffffffffffffffffffffffff16036114f5576040517f08c379a00000000000000000000000000000000000000000000000000000000081526004016114ec90613612565b60405180910390fd5b8060345f8573ffffffffffffffffffffffffffffffffffffffff1673ffffffffffffffffffffffffffffffffffffffff1681526020019081526020015f205f8473ffffffffffffffffffffffffffffffffffffffff1673ffffffffffffffffffffffffffffffffffffffff1681526020019081526020015f20819055508173ffffffffffffffffffffffffffffffffffffffff168373ffffffffffffffffffffffffffffffffffffffff167f8c5be1e5ebec7d5bd14f71427d1e84f3dd0314c0f7b2291e5b200ac8c7c3b925836040516115cf9190612b80565b60405180910390a3505050565b5f6115e784846112df565b90507fffffffffffffffffffffffffffffffffffffffffffffffffffffffffffffffff81146116615781811015611653576040517f08c379a000000000000000000000000000000000000000000000000000000000815260040161164a9061367a565b60405180910390fd5b6116608484848403611419565b5b50505050565b5f73ffffffffffffffffffffffffffffffffffffffff168373ffffffffffffffffffffffffffffffffffffffff16036116d5576040517f08c379a00000000000000000000000000000000000000000000000000000000081526004016116cc90613708565b60405180910390fd5b5f73ffffffffffffffffffffffffffffffffffffffff168273ffffffffffffffffffffffffffffffffffffffff1603611743576040517f08c379a000000000000000000000000000000000000000000000000000000000815260040161173a90613796565b60405180910390fd5b61174e838383612228565b5f60335f8573ffffffffffffffffffffffffffffffffffffffff1673ffffffffffffffffffffffffffffffffffffffff1681526020019081526020015f20549050818110156117d2576040517f08c379a00000000000000000000000000000000000000000000000000000000081526004016117c990613824565b60405180910390fd5b81810360335f8673ffffffffffffffffffffffffffffffffffffffff1673ffffffffffffffffffffffffffffffffffffffff1681526020019081526020015f20819055508160335f8573ffffffffffffffffffffffffffffffffffffffff1673ffffffffffffffffffffffffffffffffffffffff1681526020019081526020015f205f82825401925050819055508273ffffffffffffffffffffffffffffffffffffffff168473ffffffffffffffffffffffffffffffffffffffff167fddf252ad1be2c89b69c2b068fc378daa952ba7f163c4a11628f55a4df523b3ef846040516118bd9190612b80565b60405180910390a36118d0848484612240565b50505050565b6118e7816118e2611412565b612245565b50565b6118f48282611152565b6119c157600160fb5f8481526020019081526020015f205f015f8373ffffffffffffffffffffffffffffffffffffffff1673ffffffffffffffffffffffffffffffffffffffff1681526020019081526020015f205f6101000a81548160ff021916908315150217905550611966611412565b73ffffffffffffffffffffffffffffffffffffffff168173ffffffffffffffffffffffffffffffffffffffff16837f2f8788117e7eff1d82e926ec794901d17c78024a50270940304540a733656f0d60405160405180910390a45b5050565b6119cf8282611152565b15611a9c575f60fb5f8481526020019081526020015f205f015f8373ffffffffffffffffffffffffffffffffffffffff1673ffffffffffffffffffffffffffffffffffffffff1681526020019081526020015f205f6101000a81548160ff021916908315150217905550611a41611412565b73ffffffffffffffffffffffffffffffffffffffff168173ffffffffffffffffffffffffffffffffffffffff16837ff6391f5c32d9c69d2a47ea670b442974b53935d1edc7fd64eb21e047a839171b60405160405180910390a45b5050565b5f611acc7f360894a13ba1a3210667c828492db98dca3e2076cc3735a920a3ca505d382bbc5f1b6122c9565b5f015f9054906101000a900473ffffffffffffffffffffffffffffffffffffffff16905090565b7f189ab7a9244df0848122154315af71fe140f3db0fe014031783b0946b8c9d2e3611b1d816118d6565b5050565b611b4c7f4910fdfa16fed3260ed0e7147f7cc6da11a60208b5b9406d12a635614ffd91435f1b6122d2565b5f015f9054906101000a900460ff1615611b6e57611b69836122db565b611c86565b8273ffffffffffffffffffffffffffffffffffffffff166352d1902d6040518163ffffffff1660e01b8152600401602060405180830381865afa925050508015611bd657506040513d601f19601f82011682018060405250810190611bd39190613856565b60015b611c15576040517f08c379a0000000000000000000000000000000000000000000000000000000008152600401611c0c906138f1565b60405180910390fd5b7f360894a13ba1a3210667c828492db98dca3e2076cc3735a920a3ca505d382bbc5f1b8114611c79576040517f08c379a0000000000000000000000000000000000000000000000000000000008152600401611c709061397f565b60405180910390fd5b50611c85838383612391565b5b505050565b611c936123bc565b5f60975f6101000a81548160ff0219169083151502179055507f5db9ee0a495bf2e6ff9c91a7834c1ba4fdd244a5e8aa4e537bd38aeae4b073aa611cd5611412565b604051611ce291906139ac565b60405180910390a1565b5f73ffffffffffffffffffffffffffffffffffffffff168273ffffffffffffffffffffffffffffffffffffffff1603611d5a576040517f08c379a0000000000000000000000000000000000000000000000000000000008152600401611d5190613a0f565b60405180910390fd5b611d655f8383612228565b8060355f828254611d7691906131e6565b925050819055508060335f8473ffffffffffffffffffffffffffffffffffffffff1673ffffffffffffffffffffffffffffffffffffffff1681526020019081526020015f205f82825401925050819055508173ffffffffffffffffffffffffffffffffffffffff165f73ffffffffffffffffffffffffffffffffffffffff167fddf252ad1be2c89b69c2b068fc378daa952ba7f163c4a11628f55a4df523b3ef83604051611e249190612b80565b60405180910390a3611e375f8383612240565b5050565b5f73ffffffffffffffffffffffffffffffffffffffff168273ffffffffffffffffffffffffffffffffffffffff1603611ea9576040517f08c379a0000000000000000000000000000000000000000000000000000000008152600401611ea090613a9d565b60405180910390fd5b611eb4825f83612228565b5f60335f8473ffffffffffffffffffffffffffffffffffffffff1673ffffffffffffffffffffffffffffffffffffffff1681526020019081526020015f2054905081811015611f38576040517f08c379a0000000000000000000000000000000000000000000000000000000008152600401611f2f90613b2b565b60405180910390fd5b81810360335f8573ffffffffffffffffffffffffffffffffffffffff1673ffffffffffffffffffffffffffffffffffffffff1681526020019081526020015f20819055508160355f82825403925050819055505f73ffffffffffffffffffffffffffffffffffffffff168373ffffffffffffffffffffffffffffffffffffffff167fddf252ad1be2c89b69c2b068fc378daa952ba7f163c4a11628f55a4df523b3ef84604051611fe89190612b80565b60405180910390a3611ffb835f84612240565b505050565b5f808273ffffffffffffffffffffffffffffffffffffffff163b119050919050565b5f60019054906101000a900460ff16612070576040517f08c379a000000000000000000000000000000000000000000000000000000000815260040161206790613bb9565b60405180910390fd5b61207a8282612405565b5050565b5f60019054906101000a900460ff166120cc576040517f08c379a00000000000000000000000000000000000000000000000000000000081526004016120c390613bb9565b60405180910390fd5b565b5f60019054906101000a900460ff1661211c576040517f08c379a000000000000000000000000000000000000000000000000000000000815260040161211390613bb9565b60405180910390fd5b612124612477565b565b5f60019054906101000a900460ff16612174576040517f08c379a000000000000000000000000000000000000000000000000000000000815260040161216b90613bb9565b60405180910390fd5b565b5f60019054906101000a900460ff166121c4576040517f08c379a00000000000000000000000000000000000000000000000000000000081526004016121bb90613bb9565b60405180910390fd5b565b6121ce6124e0565b600160975f6101000a81548160ff0219169083151502179055507f62e78cea01bee320cd4e420270b5ea74000d11b0c9f74754ebdbfc544b05a258612211611412565b60405161221e91906139ac565b60405180910390a1565b6122306124e0565b61223b83838361252a565b505050565b505050565b61224f8282611152565b6122c55761225c8161252f565b612269835f1c602061255c565b60405160200161227a929190613ca5565b6040516020818303038152906040526040517f08c379a00000000000000000000000000000000000000000000000000000000081526004016122bc9190612a86565b60405180910390fd5b5050565b5f819050919050565b5f819050919050565b6122e481612000565b612323576040517f08c379a000000000000000000000000000000000000000000000000000000000815260040161231a90613d4e565b60405180910390fd5b8061234f7f360894a13ba1a3210667c828492db98dca3e2076cc3735a920a3ca505d382bbc5f1b6122c9565b5f015f6101000a81548173ffffffffffffffffffffffffffffffffffffffff021916908373ffffffffffffffffffffffffffffffffffffffff16021790555050565b61239a83612791565b5f825111806123a65750805b156123b7576123b583836127e0565b505b505050565b6123c4611022565b612403576040517f08c379a00000000000000000000000000000000000000000000000000000000081526004016123fa90613db6565b60405180910390fd5b565b5f60019054906101000a900460ff16612453576040517f08c379a000000000000000000000000000000000000000000000000000000000815260040161244a90613bb9565b60405180910390fd5b81603690816124629190613fc5565b5080603790816124729190613fc5565b505050565b5f60019054906101000a900460ff166124c5576040517f08c379a00000000000000000000000000000000000000000000000000000000081526004016124bc90613bb9565b60405180910390fd5b5f60975f6101000a81548160ff021916908315150217905550565b6124e8611022565b15612528576040517f08c379a000000000000000000000000000000000000000000000000000000000815260040161251f906140de565b60405180910390fd5b565b505050565b60606125558273ffffffffffffffffffffffffffffffffffffffff16601460ff1661255c565b9050919050565b60605f600283600261256e91906140fc565b61257891906131e6565b67ffffffffffffffff81111561259157612590612d3f565b5b6040519080825280601f01601f1916602001820160405280156125c35781602001600182028036833780820191505090505b5090507f3000000000000000000000000000000000000000000000000000000000000000815f815181106125fa576125f961413d565b5b60200101907effffffffffffffffffffffffffffffffffffffffffffffffffffffffffffff191690815f1a9053507f78000000000000000000000000000000000000000000000000000000000000008160018151811061265d5761265c61413d565b5b60200101907effffffffffffffffffffffffffffffffffffffffffffffffffffffffffffff191690815f1a9053505f600184600261269b91906140fc565b6126a591906131e6565b90505b6001811115612744577f3031323334353637383961626364656600000000000000000000000000000000600f8616601081106126e7576126e661413d565b5b1a60f81b8282815181106126fe576126fd61413d565b5b60200101907effffffffffffffffffffffffffffffffffffffffffffffffffffffffffffff191690815f1a905350600485901c94508061273d9061416a565b90506126a8565b505f8414612787576040517f08c379a000000000000000000000000000000000000000000000000000000000815260040161277e906141db565b60405180910390fd5b8091505092915050565b61279a816122db565b8073ffffffffffffffffffffffffffffffffffffffff167fbc7cd75a20ee27fd9adebab32041f755214dbc6bffa90cc0225b39da2e5c2d3b60405160405180910390a250565b606061280583836040518060600160405280602781526020016142bc6027913961280d565b905092915050565b60605f808573ffffffffffffffffffffffffffffffffffffffff1685604051612836919061423d565b5f60405180830381855af49150503d805f811461286e576040519150601f19603f3d011682016040523d82523d5f602084013e612873565b606091505b50915091506128848683838761288f565b925050509392505050565b606083156128f0575f8351036128e8576128a885612000565b6128e7576040517f08c379a00000000000000000000000000000000000000000000000000000000081526004016128de9061429d565b60405180910390fd5b5b8290506128fb565b6128fa8383612903565b5b949350505050565b5f825111156129155781518083602001fd5b806040517f08c379a00000000000000000000000000000000000000000000000000000000081526004016129499190612a86565b60405180910390fd5b5f604051905090565b5f80fd5b5f80fd5b5f7fffffffff0000000000000000000000000000000000000000000000000000000082169050919050565b61299781612963565b81146129a1575f80fd5b50565b5f813590506129b28161298e565b92915050565b5f602082840312156129cd576129cc61295b565b5b5f6129da848285016129a4565b91505092915050565b5f8115159050919050565b6129f7816129e3565b82525050565b5f602082019050612a105f8301846129ee565b92915050565b5f81519050919050565b5f82825260208201905092915050565b8281835e5f83830152505050565b5f601f19601f8301169050919050565b5f612a5882612a16565b612a628185612a20565b9350612a72818560208601612a30565b612a7b81612a3e565b840191505092915050565b5f6020820190508181035f830152612a9e8184612a4e565b905092915050565b5f73ffffffffffffffffffffffffffffffffffffffff82169050919050565b5f612acf82612aa6565b9050919050565b612adf81612ac5565b8114612ae9575f80fd5b50565b5f81359050612afa81612ad6565b92915050565b5f819050919050565b612b1281612b00565b8114612b1c575f80fd5b50565b5f81359050612b2d81612b09565b92915050565b5f8060408385031215612b4957612b4861295b565b5b5f612b5685828601612aec565b9250506020612b6785828601612b1f565b9150509250929050565b612b7a81612b00565b82525050565b5f602082019050612b935f830184612b71565b92915050565b5f805f60608486031215612bb057612baf61295b565b5b5f612bbd86828701612aec565b9350506020612bce86828701612aec565b9250506040612bdf86828701612b1f565b9150509250925092565b5f819050919050565b612bfb81612be9565b8114612c05575f80fd5b50565b5f81359050612c1681612bf2565b92915050565b5f60208284031215612c3157612c3061295b565b5b5f612c3e84828501612c08565b91505092915050565b612c5081612be9565b82525050565b5f602082019050612c695f830184612c47565b92915050565b5f8060408385031215612c8557612c8461295b565b5b5f612c9285828601612c08565b9250506020612ca385828601612aec565b9150509250929050565b5f60ff82169050919050565b612cc281612cad565b82525050565b5f602082019050612cdb5f830184612cb9565b92915050565b5f60208284031215612cf657612cf561295b565b5b5f612d0384828501612aec565b91505092915050565b5f60208284031215612d2157612d2061295b565b5b5f612d2e84828501612b1f565b91505092915050565b5f80fd5b5f80fd5b7f4e487b71000000000000000000000000000000000000000000000000000000005f52604160045260245ffd5b612d7582612a3e565b810181811067ffffffffffffffff82111715612d9457612d93612d3f565b5b80604052505050565b5f612da6612952565b9050612db28282612d6c565b919050565b5f67ffffffffffffffff821115612dd157612dd0612d3f565b5b612dda82612a3e565b9050602081019050919050565b828183375f83830152505050565b5f612e07612e0284612db7565b612d9d565b905082815260208101848484011115612e2357612e22612d3b565b5b612e2e848285612de7565b509392505050565b5f82601f830112612e4a57612e49612d37565b5b8135612e5a848260208601612df5565b91505092915050565b5f8060408385031215612e7957612e7861295b565b5b5f83013567ffffffffffffffff811115612e9657612e9561295f565b5b612ea285828601612e36565b925050602083013567ffffffffffffffff811115612ec357612ec261295f565b5b612ecf85828601612e36565b9150509250929050565b5f67ffffffffffffffff821115612ef357612ef2612d3f565b5b612efc82612a3e565b9050602081019050919050565b5f612f1b612f1684612ed9565b612d9d565b905082815260208101848484011115612f3757612f36612d3b565b5b612f42848285612de7565b509392505050565b5f82601f830112612f5e57612f5d612d37565b5b8135612f6e848260208601612f09565b91505092915050565b5f8060408385031215612f8d57612f8c61295b565b5b5f612f9a85828601612aec565b925050602083013567ffffffffffffffff811115612fbb57612fba61295f565b5b612fc785828601612f4a565b9150509250929050565b5f8060408385031215612fe757612fe661295b565b5b5f612ff485828601612aec565b925050602061300585828601612aec565b9150509250929050565b7f416363657373436f6e74726f6c3a2063616e206f6e6c792072656e6f756e63655f8201527f20726f6c657320666f722073656c660000000000000000000000000000000000602082015250565b5f613069602f83612a20565b91506130748261300f565b604082019050919050565b5f6020820190508181035f8301526130968161305d565b9050919050565b7f46756e6374696f6e206d7573742062652063616c6c6564207468726f756768205f8201527f64656c656761746563616c6c0000000000000000000000000000000000000000602082015250565b5f6130f7602c83612a20565b91506131028261309d565b604082019050919050565b5f6020820190508181035f830152613124816130eb565b9050919050565b7f46756e6374696f6e206d7573742062652063616c6c6564207468726f756768205f8201527f6163746976652070726f78790000000000000000000000000000000000000000602082015250565b5f613185602c83612a20565b91506131908261312b565b604082019050919050565b5f6020820190508181035f8301526131b281613179565b9050919050565b7f4e487b71000000000000000000000000000000000000000000000000000000005f52601160045260245ffd5b5f6131f082612b00565b91506131fb83612b00565b9250828201905080821115613213576132126131b9565b5b92915050565b7f45524332303a20696e73756666696369656e7420737570706c790000000000005f82015250565b5f61324d601a83612a20565b915061325882613219565b602082019050919050565b5f6020820190508181035f83015261327a81613241565b9050919050565b7f496e697469616c697a61626c653a20636f6e747261637420697320616c7265615f8201527f647920696e697469616c697a6564000000000000000000000000000000000000602082015250565b5f6132db602e83612a20565b91506132e682613281565b604082019050919050565b5f6020820190508181035f830152613308816132cf565b9050919050565b5f819050919050565b5f819050919050565b5f61333b6133366133318461330f565b613318565b612cad565b9050919050565b61334b81613321565b82525050565b5f6020820190506133645f830184613342565b92915050565b7f555550535570677261646561626c653a206d757374206e6f742062652063616c5f8201527f6c6564207468726f7567682064656c656761746563616c6c0000000000000000602082015250565b5f6133c4603883612a20565b91506133cf8261336a565b604082019050919050565b5f6020820190508181035f8301526133f1816133b8565b9050919050565b7f45524332303a2063616e206e6f7420736574206d617820737570706c79206c655f8201527f7373207468616e2063757272656e7420737570706c7900000000000000000000602082015250565b5f613452603683612a20565b915061345d826133f8565b604082019050919050565b5f6020820190508181035f83015261347f81613446565b9050919050565b7f45524332303a2064656372656173656420616c6c6f77616e63652062656c6f775f8201527f207a65726f000000000000000000000000000000000000000000000000000000602082015250565b5f6134e0602583612a20565b91506134eb82613486565b604082019050919050565b5f6020820190508181035f83015261350d816134d4565b9050919050565b7f45524332303a20617070726f76652066726f6d20746865207a65726f206164645f8201527f7265737300000000000000000000000000000000000000000000000000000000602082015250565b5f61356e602483612a20565b915061357982613514565b604082019050919050565b5f6020820190508181035f83015261359b81613562565b9050919050565b7f45524332303a20617070726f766520746f20746865207a65726f2061646472655f8201527f7373000000000000000000000000000000000000000000000000000000000000602082015250565b5f6135fc602283612a20565b9150613607826135a2565b604082019050919050565b5f6020820190508181035f830152613629816135f0565b9050919050565b7f45524332303a20696e73756666696369656e7420616c6c6f77616e63650000005f82015250565b5f613664601d83612a20565b915061366f82613630565b602082019050919050565b5f6020820190508181035f83015261369181613658565b9050919050565b7f45524332303a207472616e736665722066726f6d20746865207a65726f2061645f8201527f6472657373000000000000000000000000000000000000000000000000000000602082015250565b5f6136f2602583612a20565b91506136fd82613698565b604082019050919050565b5f6020820190508181035f83015261371f816136e6565b9050919050565b7f45524332303a207472616e7366657220746f20746865207a65726f20616464725f8201527f6573730000000000000000000000000000000000000000000000000000000000602082015250565b5f613780602383612a20565b915061378b82613726565b604082019050919050565b5f6020820190508181035f8301526137ad81613774565b9050919050565b7f45524332303a207472616e7366657220616d6f756e74206578636565647320625f8201527f616c616e63650000000000000000000000000000000000000000000000000000602082015250565b5f61380e602683612a20565b9150613819826137b4565b604082019050919050565b5f6020820190508181035f83015261383b81613802565b9050919050565b5f8151905061385081612bf2565b92915050565b5f6020828403121561386b5761386a61295b565b5b5f61387884828501613842565b91505092915050565b7f45524331393637557067726164653a206e657720696d706c656d656e746174695f8201527f6f6e206973206e6f742055555053000000000000000000000000000000000000602082015250565b5f6138db602e83612a20565b91506138e682613881565b604082019050919050565b5f6020820190508181035f830152613908816138cf565b9050919050565b7f45524331393637557067726164653a20756e737570706f727465642070726f785f8201527f6961626c65555549440000000000000000000000000000000000000000000000602082015250565b5f613969602983612a20565b91506139748261390f565b604082019050919050565b5f6020820190508181035f8301526139968161395d565b9050919050565b6139a681612ac5565b82525050565b5f6020820190506139bf5f83018461399d565b92915050565b7f45524332303a206d696e7420746f20746865207a65726f2061646472657373005f82015250565b5f6139f9601f83612a20565b9150613a04826139c5565b602082019050919050565b5f6020820190508181035f830152613a26816139ed565b9050919050565b7f45524332303a206275726e2066726f6d20746865207a65726f206164647265735f8201527f7300000000000000000000000000000000000000000000000000000000000000602082015250565b5f613a87602183612a20565b9150613a9282613a2d565b604082019050919050565b5f6020820190508181035f830152613ab481613a7b565b9050919050565b7f45524332303a206275726e20616d6f756e7420657863656564732062616c616e5f8201527f6365000000000000000000000000000000000000000000000000000000000000602082015250565b5f613b15602283612a20565b9150613b2082613abb565b604082019050919050565b5f6020820190508181035f830152613b4281613b09565b9050919050565b7f496e697469616c697a61626c653a20636f6e7472616374206973206e6f7420695f8201527f6e697469616c697a696e67000000000000000000000000000000000000000000602082015250565b5f613ba3602b83612a20565b9150613bae82613b49565b604082019050919050565b5f6020820190508181035f830152613bd081613b97565b9050919050565b5f81905092915050565b7f416363657373436f6e74726f6c3a206163636f756e74200000000000000000005f82015250565b5f613c15601783613bd7565b9150613c2082613be1565b601782019050919050565b5f613c3582612a16565b613c3f8185613bd7565b9350613c4f818560208601612a30565b80840191505092915050565b7f206973206d697373696e6720726f6c65200000000000000000000000000000005f82015250565b5f613c8f601183613bd7565b9150613c9a82613c5b565b601182019050919050565b5f613caf82613c09565b9150613cbb8285613c2b565b9150613cc682613c83565b9150613cd28284613c2b565b91508190509392505050565b7f455243313936373a206e657720696d706c656d656e746174696f6e206973206e5f8201527f6f74206120636f6e747261637400000000000000000000000000000000000000602082015250565b5f613d38602d83612a20565b9150613d4382613cde565b604082019050919050565b5f6020820190508181035f830152613d6581613d2c565b9050919050565b7f5061757361626c653a206e6f74207061757365640000000000000000000000005f82015250565b5f613da0601483612a20565b9150613dab82613d6c565b602082019050919050565b5f6020820190508181035f830152613dcd81613d94565b9050919050565b7f4e487b71000000000000000000000000000000000000000000000000000000005f52602260045260245ffd5b5f6002820490506001821680613e1857607f821691505b602082108103613e2b57613e2a613dd4565b5b50919050565b5f819050815f5260205f209050919050565b5f6020601f8301049050919050565b5f82821b905092915050565b5f60088302613e8d7fffffffffffffffffffffffffffffffffffffffffffffffffffffffffffffffff82613e52565b613e978683613e52565b95508019841693508086168417925050509392505050565b5f613ec9613ec4613ebf84612b00565b613318565b612b00565b9050919050565b5f819050919050565b613ee283613eaf565b613ef6613eee82613ed0565b848454613e5e565b825550505050565b5f90565b613f0a613efe565b613f15818484613ed9565b505050565b5b81811015613f3857613f2d5f82613f02565b600181019050613f1b565b5050565b601f821115613f7d57613f4e81613e31565b613f5784613e43565b81016020851015613f66578190505b613f7a613f7285613e43565b830182613f1a565b50505b505050565b5f82821c905092915050565b5f613f9d5f1984600802613f82565b1980831691505092915050565b5f613fb58383613f8e565b9150826002028217905092915050565b613fce82612a16565b67ffffffffffffffff811115613fe757613fe6612d3f565b5b613ff18254613e01565b613ffc828285613f3c565b5f60209050601f83116001811461402d575f841561401b578287015190505b6140258582613faa565b86555061408c565b601f19841661403b86613e31565b5f5b828110156140625784890151825560018201915060208501945060208101905061403d565b8683101561407f578489015161407b601f891682613f8e565b8355505b6001600288020188555050505b505050505050565b7f5061757361626c653a20706175736564000000000000000000000000000000005f82015250565b5f6140c8601083612a20565b91506140d382614094565b602082019050919050565b5f6020820190508181035f8301526140f5816140bc565b9050919050565b5f61410682612b00565b915061411183612b00565b925082820261411f81612b00565b91508282048414831517614136576141356131b9565b5b5092915050565b7f4e487b71000000000000000000000000000000000000000000000000000000005f52603260045260245ffd5b5f61417482612b00565b91505f8203614186576141856131b9565b5b600182039050919050565b7f537472696e67733a20686578206c656e67746820696e73756666696369656e745f82015250565b5f6141c5602083612a20565b91506141d082614191565b602082019050919050565b5f6020820190508181035f8301526141f2816141b9565b9050919050565b5f81519050919050565b5f81905092915050565b5f614217826141f9565b6142218185614203565b9350614231818560208601612a30565b80840191505092915050565b5f614248828461420d565b915081905092915050565b7f416464726573733a2063616c6c20746f206e6f6e2d636f6e74726163740000005f82015250565b5f614287601d83612a20565b915061429282614253565b602082019050919050565b5f6020820190508181035f8301526142b48161427b565b905091905056fe416464726573733a206c6f772d6c6576656c2064656c65676174652063616c6c206661696c6564a264697066735822122013a9ad77f5b523f03ba705a04ef7f79760299007f89283ab810a05e23a7fdc3764736f6c63430008190033",
  "immutableReferences": {
    "964": [
      {
        "length": 32,
        "start": 2465
      },
      {
        "length": 32,
        "start": 2607
      },
      {
        "length": 32,
        "start": 3633
      },
      {
        "length": 32,
        "start": 3775
      },
      {
        "length": 32,
        "start": 3950
      }
    ]
  },
  "source": "// SPDX-License-Identifier: MIT\npragma solidity ^0.8.2;\n\nimport \"@openzeppelin/contracts-upgradeable/token/ERC20/ERC20Upgradeable.sol\";\nimport \"@openzeppelin/contracts-upgradeable/token/ERC20/extensions/ERC20BurnableUpgradeable.sol\";\nimport \"@openzeppelin/contracts-upgradeable/security/PausableUpgradeable.sol\";\nimport \"@openzeppelin/contracts-upgradeable/access/AccessControlUpgradeable.sol\";\nimport \"@openzeppelin/contracts-upgradeable/proxy/utils/Initializable.sol\";\nimport \"@openzeppelin/contracts-upgradeable/proxy/utils/UUPSUpgradeable.sol\";\n\ncontract ChexV3 is Initializable, ERC20Upgradeable, ERC20BurnableUpgradeable, PausableUpgradeable, AccessControlUpgradeable, UUPSUpgradeable {\n  bytes32 public constant PAUSER_ROLE = keccak256(\"PAUSER_ROLE\");\n  bytes32 public constant MINTER_ROLE = keccak256(\"MINTER_ROLE\");\n  bytes32 public constant UPGRADER_ROLE = keccak256(\"UPGRADER_ROLE\");\n  uint256 private _maxSupply;\n\n  /// @custom:oz-upgrades-unsafe-allow constructor\n  constructor() initializer {}\n\n  function initialize(string memory name_, string memory symbol_) initializer public {\n    __ERC20_init(name_, symbol_);\n    __ERC20Burnable_init();\n    __Pausable_init();\n    __AccessControl_init();\n    __UUPSUpgradeable_init();\n\n    _grantRole(DEFAULT_ADMIN_ROLE, msg.sender);\n    _grantRole(PAUSER_ROLE, msg.sender);\n    _grantRole(MINTER_ROLE, msg.sender);\n    _grantRole(UPGRADER_ROLE, msg.sender);\n\n    _maxSupply = 1000000000000000000000000000;\n  }\n\n  function pause() public onlyRole(PAUSER_ROLE) {\n    _pause();\n  }\n\n  function unpause() public onlyRole(PAUSER_ROLE) {\n    _unpause();\n  }\n\n  function name() public pure override returns (string memory) {\n    return \"Chintai Exchange Token\";\n  }\n\n  function symbol() public pure override returns (string memory) {\n    return \"CHEX\";\n  }\n\n  function setMaxSupply(uint256 amount) public onlyRole(MINTER_ROLE) {\n    // Can't set max supply to be less than current supply\n    require(amount >= totalSupply(), \"ERC20: can not set max supply less than current supply\");\n    _maxSupply = amount;\n  }\n\n  function maxSupply() public view returns (uint256) {\n    return _maxSupply;\n  }\n\n  function mint(address to, uint256 amount) public onlyRole(MINTER_ROLE) {\n    require(totalSupply() + amount <= _maxSupply, \"ERC20: insufficient supply\");\n    _mint(to, amount);\n  }\n\n  function _beforeTokenTransfer(address from, address to, uint256 amount)\n    internal\n    whenNotPaused\n    override\n    {\n      super._beforeTokenTransfer(from, to, amount);\n    }\n\n  function _authorizeUpgrade(address newImplementation)\n    internal\n    onlyRole(UPGRADER_ROLE)\n    override\n    {}\n}",
  "sourcePath": "/Users/phamnett/WebstormProjects/ethsc-chex/contracts/ChexV3.sol",
  "compiler": {
    "name": "solc",
    "version": "0.8.25+commit.b61c2a91.Emscripten.clang"
  },
  "schemaVersion": "3.4.16",
  "updatedAt": "2024-05-29T21:57:35.210Z",
  "devdoc": {
    "events": {
      "AdminChanged(address,address)": {
        "details": "Emitted when the admin account has changed."
      },
      "Approval(address,address,uint256)": {
        "details": "Emitted when the allowance of a `spender` for an `owner` is set by a call to {approve}. `value` is the new allowance."
      },
      "BeaconUpgraded(address)": {
        "details": "Emitted when the beacon is changed."
      },
      "Initialized(uint8)": {
        "details": "Triggered when the contract has been initialized or reinitialized."
      },
      "Paused(address)": {
        "details": "Emitted when the pause is triggered by `account`."
      },
      "RoleAdminChanged(bytes32,bytes32,bytes32)": {
        "details": "Emitted when `newAdminRole` is set as ``role``'s admin role, replacing `previousAdminRole` `DEFAULT_ADMIN_ROLE` is the starting admin for all roles, despite {RoleAdminChanged} not being emitted signaling this. _Available since v3.1._"
      },
      "RoleGranted(bytes32,address,address)": {
        "details": "Emitted when `account` is granted `role`. `sender` is the account that originated the contract call, an admin role bearer except when using {AccessControl-_setupRole}."
      },
      "RoleRevoked(bytes32,address,address)": {
        "details": "Emitted when `account` is revoked `role`. `sender` is the account that originated the contract call:   - if using `revokeRole`, it is the admin role bearer   - if using `renounceRole`, it is the role bearer (i.e. `account`)"
      },
      "Transfer(address,address,uint256)": {
        "details": "Emitted when `value` tokens are moved from one account (`from`) to another (`to`). Note that `value` may be zero."
      },
      "Unpaused(address)": {
        "details": "Emitted when the pause is lifted by `account`."
      },
      "Upgraded(address)": {
        "details": "Emitted when the implementation is upgraded."
      }
    },
    "kind": "dev",
    "methods": {
      "allowance(address,address)": {
        "details": "See {IERC20-allowance}."
      },
      "approve(address,uint256)": {
        "details": "See {IERC20-approve}. NOTE: If `amount` is the maximum `uint256`, the allowance is not updated on `transferFrom`. This is semantically equivalent to an infinite approval. Requirements: - `spender` cannot be the zero address."
      },
      "balanceOf(address)": {
        "details": "See {IERC20-balanceOf}."
      },
      "burn(uint256)": {
        "details": "Destroys `amount` tokens from the caller. See {ERC20-_burn}."
      },
      "burnFrom(address,uint256)": {
        "details": "Destroys `amount` tokens from `account`, deducting from the caller's allowance. See {ERC20-_burn} and {ERC20-allowance}. Requirements: - the caller must have allowance for ``accounts``'s tokens of at least `amount`."
      },
      "constructor": {
        "custom:oz-upgrades-unsafe-allow": "constructor"
      },
      "decimals()": {
        "details": "Returns the number of decimals used to get its user representation. For example, if `decimals` equals `2`, a balance of `505` tokens should be displayed to a user as `5.05` (`505 / 10 ** 2`). Tokens usually opt for a value of 18, imitating the relationship between Ether and Wei. This is the default value returned by this function, unless it's overridden. NOTE: This information is only used for _display_ purposes: it in no way affects any of the arithmetic of the contract, including {IERC20-balanceOf} and {IERC20-transfer}."
      },
      "decreaseAllowance(address,uint256)": {
        "details": "Atomically decreases the allowance granted to `spender` by the caller. This is an alternative to {approve} that can be used as a mitigation for problems described in {IERC20-approve}. Emits an {Approval} event indicating the updated allowance. Requirements: - `spender` cannot be the zero address. - `spender` must have allowance for the caller of at least `subtractedValue`."
      },
      "getRoleAdmin(bytes32)": {
        "details": "Returns the admin role that controls `role`. See {grantRole} and {revokeRole}. To change a role's admin, use {_setRoleAdmin}."
      },
      "grantRole(bytes32,address)": {
        "details": "Grants `role` to `account`. If `account` had not been already granted `role`, emits a {RoleGranted} event. Requirements: - the caller must have ``role``'s admin role. May emit a {RoleGranted} event."
      },
      "hasRole(bytes32,address)": {
        "details": "Returns `true` if `account` has been granted `role`."
      },
      "increaseAllowance(address,uint256)": {
        "details": "Atomically increases the allowance granted to `spender` by the caller. This is an alternative to {approve} that can be used as a mitigation for problems described in {IERC20-approve}. Emits an {Approval} event indicating the updated allowance. Requirements: - `spender` cannot be the zero address."
      },
      "name()": {
        "details": "Returns the name of the token."
      },
      "paused()": {
        "details": "Returns true if the contract is paused, and false otherwise."
      },
      "proxiableUUID()": {
        "details": "Implementation of the ERC1822 {proxiableUUID} function. This returns the storage slot used by the implementation. It is used to validate the implementation's compatibility when performing an upgrade. IMPORTANT: A proxy pointing at a proxiable contract should not be considered proxiable itself, because this risks bricking a proxy that upgrades to it, by delegating to itself until out of gas. Thus it is critical that this function revert if invoked through a proxy. This is guaranteed by the `notDelegated` modifier."
      },
      "renounceRole(bytes32,address)": {
        "details": "Revokes `role` from the calling account. Roles are often managed via {grantRole} and {revokeRole}: this function's purpose is to provide a mechanism for accounts to lose their privileges if they are compromised (such as when a trusted device is misplaced). If the calling account had been revoked `role`, emits a {RoleRevoked} event. Requirements: - the caller must be `account`. May emit a {RoleRevoked} event."
      },
      "revokeRole(bytes32,address)": {
        "details": "Revokes `role` from `account`. If `account` had been granted `role`, emits a {RoleRevoked} event. Requirements: - the caller must have ``role``'s admin role. May emit a {RoleRevoked} event."
      },
      "supportsInterface(bytes4)": {
        "details": "See {IERC165-supportsInterface}."
      },
      "symbol()": {
        "details": "Returns the symbol of the token, usually a shorter version of the name."
      },
      "totalSupply()": {
        "details": "See {IERC20-totalSupply}."
      },
      "transfer(address,uint256)": {
        "details": "See {IERC20-transfer}. Requirements: - `to` cannot be the zero address. - the caller must have a balance of at least `amount`."
      },
      "transferFrom(address,address,uint256)": {
        "details": "See {IERC20-transferFrom}. Emits an {Approval} event indicating the updated allowance. This is not required by the EIP. See the note at the beginning of {ERC20}. NOTE: Does not update the allowance if the current allowance is the maximum `uint256`. Requirements: - `from` and `to` cannot be the zero address. - `from` must have a balance of at least `amount`. - the caller must have allowance for ``from``'s tokens of at least `amount`."
      },
      "upgradeTo(address)": {
        "custom:oz-upgrades-unsafe-allow-reachable": "delegatecall",
        "details": "Upgrade the implementation of the proxy to `newImplementation`. Calls {_authorizeUpgrade}. Emits an {Upgraded} event."
      },
      "upgradeToAndCall(address,bytes)": {
        "custom:oz-upgrades-unsafe-allow-reachable": "delegatecall",
        "details": "Upgrade the implementation of the proxy to `newImplementation`, and subsequently execute the function call encoded in `data`. Calls {_authorizeUpgrade}. Emits an {Upgraded} event."
      }
    },
    "version": 1
  },
  "userdoc": {
    "kind": "user",
    "methods": {},
    "version": 1
  }
}